:020000040800F2
:10000000580F002021030008C55400088954000837
:10001000C1540008A5070008356C00083303000828
:10002000000000000000000000000000A5560008CD
:100030007D09000800000000C9540008A956000806
:100040003D0300083D0300083D0300083D03000890
:100050003D0300083D0300083D0300083D03000880
:100060003D0300083D0300083D0300083D03000870
:100070003D0300083D0300083D0300083D03000860
:100080003D0300083D0300083D0300083D03000850
:100090003D0300083D0300083D0300083D03000840
:1000A000810900083D0300083D030008910900088C
:1000B0003D0300083D0300083D0300083D03000820
:1000C0003D0300083D0300083D0300083D03000810
:1000D0003D0300083D0300083D0300083D03000800
:1000E0003D0300083D0300083D0300083D030008F0
:1000F0003D0300083D0300083D0300083D030008E0
:100100003D0300083D0300083D0300083D030008CF
:100110003D0300083D0300083D0300083D030008BF
:100120003D0300083D0300083D0300083D030008AF
:100130003D0300083D0300083D0300083D0300089F
:100140003D0300083D0300083D0300083D0300088F
:100150003D0300083D0300083D0300083D0300087F
:100160000000000000000000496200083D03000894
:100170003D0300083D0300083D0300083D0300085F
:100180003D0300083D0300083D0300080000000097
:10019000000000003D030008000000000000000017
:1001A00000000000000000003D0300083D030008BF
:1001B0003D0300083D0300083D0300083D0300081F
:1001C0003D0300083D03000800000000000000009F
:1001D0000000000000000000000000003D030008D7
:1001E0003D0300083D03000800000000000000007F
:1001F0003D0300083D0300083D0300080000000027
:10020000000000003D0300083D0300083D03000816
:100210003D0300083D0300083D0300083D030008BE
:100220003D03000800000000000000003D0300083E
:100230003D03000800000000000000000000000076
:100240000000000000000000000000003D03000866
:100250003D03000800F002F800F052F814A696E8FA
:10026000000CB244B344DA4501D100F049F8BAE8D1
:100270000F000FA696E83000A5EB040504EB060777
:10028000AAEB0704A7F101074FEA15154FEA34144A
:10029000A4F10104AC4201D300F032F813F0010FD5
:1002A00018BFFB1A43F0010300F001F8DBE7184721
:1002B000C4DC0000E4DC0000103A24BF78C878C138
:1002C000FAD8520724BF30C830C144BF04680C605C
:1002D000704700007047000000230024002500261E
:1002E000103A28BF78C1FBD8520728BF30C148BF99
:1002F0000B6070471FB50DF0A3FD1FBD10B510BDFD
:1003000000F068F91146FFF7F5FF07F0B7FD00F0C0
:1003100086F903B4FFF7F2FF03BC00F08DF900008B
:100320000A4880470A480047FEE7FEE7FEE7FEE787
:10033000FEE7FEE7FEE7FEE7FEE7FEE7FEE700007A
:1003400004480549054A064B7047000079570008E4
:100350005502000858090020580F0020580B0020B3
:10036000580B002053EA020C00F069802DE9F04B95
:100370004FF00006002B1FBFB3FA83F503FA05F414
:1003800024FA05F65E4012BF1643B2FA82F502FA6D
:1003900005F4C5F120051EBF22FA05FC44EA0C0451
:1003A000203556EA044C4FEA144418BF641C4FF041
:1003B00000084FF00009904271EB030C39D300297B
:1003C00019BFB1FA81F701FA07F6B0FA80F700FA1F
:1003D00007F6C7F120071EBF20FA07FC46EA0C0605
:1003E0002037B6FBF4FCA7EB0507103F07F01F0B07
:1003F000CBF120062CFA06F60CFA0BFB44BFB346F1
:100400000026202FA4BF5E464FF0000B5BEA060CCF
:1004100008BF4FF0010B19EB0B0948EB0608ABFBCB
:10042000027C06FB02CC0BFB03CCC01B71EB0C0166
:10043000C1E70B46024641464846BDE8F08B13B57E
:10044000084318BF4FF0FF300146AFF30080BDE80E
:100450001C40704710B5431C02E010F8011B71B13D
:100460008107FAD14FF0013202C88C1A8C4314EA8A
:10047000C211F9D0C01A0A0603D0C01E10BDC01A9E
:1004800010BD0A0401D0801E10BD0902FCD0401E20
:1004900010BD032A40F2308010F0030C00F01580EC
:1004A00011F8013BBCF1020F624498BF11F801CB77
:1004B00000F8013B38BF11F8013BA2F1040298BFDC
:1004C00000F801CB38BF00F8013B11F0030300F046
:1004D0004F80083AC0F0088051F8043B083A51F8C0
:1004E00004CBA0E80810F5E7121D5CBF51F8043BEF
:1004F00040F8043BAFF30080D20724BF11F8013B62
:1005000011F801CB48BF11F8012B24BF00F8013BC3
:1005100000F801CB48BF00F8012B70474FF00002F4
:1005200000B5134694469646203922BFA0E80C50E9
:10053000A0E80C50B1F12001BFF4F7AF090728BFC4
:10054000A0E80C5048BF0CC05DF804EB890028BF40
:1005500040F8042B08BF704748BF20F8022B11F069
:10056000804F18BF00F8012B7047704770477047E5
:1005700010B5203AC0F00B80B1E81850A0E8185030
:10058000B1E81850A0E81850203ABFF4F5AF5FEA80
:10059000027C24BFB1E81850A0E8185044BF18C925
:1005A00018C0BDE810405FEA827C24BF51F8043BCC
:1005B00040F8043B08BF7047D20728BF31F8023B20
:1005C00048BF11F8012B28BF20F8023B48BF00F8B4
:1005D000012B7047754600F02BF8AE4605006946C2
:1005E000534620F00700854618B020B5FFF7A8FE57
:1005F000BDE820404FF000064FF000074FF0000824
:100600004FF0000BAC46ACE8C009ACE8C009ACE860
:10061000C009ACE8C00921F007018D46704710B54C
:100620000446AFF300802046BDE81040FFF771BEDE
:10063000004870475000002001491820ABBEFEE77B
:10064000260002007047000000281CBF6FF0010068
:1006500070472DE9F04186B040F68C40C4F202406C
:100660000268002442F0010202600268C4F202241F
:1006700002F001020192019A026801AD42F001020A
:1006800002600268022702F001020192019A0269E7
:100690004FF0070842F40032026100690E4600F490
:1006A0000030019001980420019001200390204621
:1006B000294602970497CDF8148001F01BFA082010
:1006C000CDE9010720462946CDF8148001F012FA41
:1006D00040F2C840C2F20000314604F0D7FE0028C4
:1006E00018BF6FF0030006B0BDE8F081704700004E
:1006F00000EB400040F25C51C2F2000101EB8000CF
:1007000001F0BCB910B586B040F68C42C4F202428A
:100710001368044643F004031360126802F00400F7
:10072000019001984FF40050019040F600004FF006
:100730000202C4F202200392049239B30021C1F2F2
:100740001101029101A901F0D5F904EB440040F236
:100750005C51C2F2000101EB80040D21C0F2006186
:10076000204601F085F940F29D722046C0F6000255
:10077000002101F0ADF918200F21002201F02CFB1F
:10078000182001F017FB002006B010BD00210291D7
:1007900001A901F0AFF9002006B010BD0020FFF75D
:1007A000A5BF0000FEE700002DE9F043D2F800C02D
:1007B000D0F808E0002953D0BEF1000F4FF000043C
:1007C00064D04FF6FC7311EA03094FF000074FF0B5
:1007D000000300F0B58005684FF6FC732B40BEF1B6
:1007E000020F4FF0010455D34B4553D04FF6FF7421
:1007F00025EA040605274FF6FC7800BF46EA030405
:1008000054F82C50FC1E744505EA08054ED24D459F
:100810004CD046EA050353F82C30BC1E744503EA5D
:1008200008031AD24B4518D046EA030454F82C505A
:100830007C1E744505EA080538D24D4536D046EA97
:10084000050353F82C30774503EA080307F1040445
:1008500002D24B452746D1D1043C1F462B466FE0C0
:10086000BEF1000F1AD004684FF6FC75BEF101030B
:1008700004EA050716D04FF6FF75AC43AEF102054A
:10088000032D03F0030813D230E000BF002700233C
:1008900056E000BF1F46002352E000BF00230027A0
:1008A000002456E00124002353E000BF2F4647E018
:1008B00023F003054FF6FC7644EA070353F82C3087
:1008C000043D03EA060343EA040353F82C3003EA29
:1008D000060343EA040353F82C3003EA060344EA10
:1008E000030757F82C7007EA0607E5D13D46B8F133
:1008F000000F24D044EA050353F82C604FF6FC7334
:10090000B8F1010F06EA030604D1744637462B46B8
:1009100016E000BF44EA060555F82C50B8F1020F66
:1009200003EA050304D174461F46334608E000BFBE
:100930001C4354F82C404FF6FC7504EA0507744636
:1009400039B14FF6FC7631408F421CBF0120BDE823
:10095000F0834088946043EA004147EA00435160D5
:10096000D36053F82C1029B14FF6FC7300041940E2
:10097000084310610020BDE8F083000070470000CC
:100980000020FFF7B5BE000072B600BFFEE7000012
:1009900040F25040C2F2000000F096BFF0B581B0C6
:1009A0000022009290F85420012A03D10221084627
:1009B00001B0F0BD0123076880F85430BB685B07C5
:1009C00050D40B6848F2083C012BC4F2022C0AD028
:1009D0000226C0F23046B3420FD1CE680025C4F2E1
:1009E0007F05AE4209D14FF6C056CFF6FF765CF8D0
:1009F000065045F001054CF806504E681F22C6F31C
:100A0000012506F01F0607EB8505C3F384632C6BF5
:100A1000B24024EA0202B3401A432A63BA68BB68B0
:100A200002F0040203F00803D21840F0BC800A6808
:100A300007F11403C2F3406404268D6806EAD25E0F
:100A400053F82460C2F304540722A240B5F1004FCA
:100A500026EA02060CD143F80E601A6842F0004301
:100A60000EE000BF816D41F02001816501217BE135
:100A700005FA04F2324343F80E201A6822F00043CC
:100A80007B61D1E90435FE68042B5FD13A6E3A6E82
:100A90000B68C2F3846293FAA3F4B4FA84F5C3F347
:100AA000846E6FF31F532C46002B08BF7446A2427E
:100AB0004FF6FF74C0F20F040CD13A6E22F00042E0
:100AC0003A660A6802EA0403C2F3846E92FAA2F25A
:100AD000B2FA82F57A6E7A6E002BC2F384622E46E9
:100AE00008BF7646B2420CD17A6E22F000427A6696
:100AF0000A6802EA0403C2F3846E92FAA2F2B2FA1E
:100B000082F5BA6EBA6E002BC2F384622E4608BF1D
:100B10007646B2420CD1BA6E22F00042BA660A683A
:100B200002EA0403C2F3846E92FAA2F2B2FA82F5E8
:100B3000FA6EFA6E002B08BF7546C2F38462AA42B1
:100B400031D1FA6E22F00042FA662CE0062202EA67
:100B5000960207F16004D1F800E054F8236005FA2A
:100B600002F24FF20005C0F2FF3535400EF0F846B4
:100B700032432A4342F0004244F823200A698B6939
:100B800054F8226026F08076334344F822300A6914
:100B90000B7F54F82260012B26F0007608BF06F187
:100BA000007644F82260BA680C68D20752D1CA684D
:100BB000D7F8B06023466FF31F5326EA030E4FF6B3
:100BC000FF7602F01805C0F20F0626FA05F525405B
:100BD00045EA0E060025C4F27F05AA42C7F8B060B8
:100BE00038D18BB194FAA4F2B2FA82F2013202F057
:100BF0001E03092B02F01F030FD8012203EB43064B
:100C00009A4042EA065315E0012202EB946202F098
:100C10001E030A2B02F01F03EFD303EB4302002550
:100C2000CFF62065012605EB025206FA03F31A43BC
:100C300042F00073C3F34062C3F3045307EB820234
:100C40008E68556907249C40A54306FA03F32B439D
:100C500053610C680021C8F208010C4200F0838047
:100C6000DCF800500021CCF221318C4205F0E0711B
:100C700008BF15F4000215D00022C4F229329442B4
:100C80004AD10022B2EB116F46D1ACF50272974205
:100C900069D1DCF8002022F0E072114341F080714C
:100CA0005FE000BFACF5427297425CD1DCF80020F7
:100CB00022F0E072114341F40001CCF8001040F240
:100CC0003401C2F20001096842F663528909C0F298
:100CD0003E52A1FB02129109022202EB4101009156
:100CE000009900293FD00099013900910099D1B3B2
:100CF0000099013900910099A9B300990139009137
:100D0000009981B3009901390091009900294FF0B1
:100D10000001E8D128E000BF0022CCF252729442D8
:100D200008BF15F4800211D0ACF542718F424FF02C
:100D3000000119D00022C4F25A72944214D1D7F89B
:100D4000C81041F00101C7F8C8100CE0ACF54272C0
:100D5000974208D1DCF8002022F0E072114341F400
:100D60008001CCF800100021002280F854200846B1
:100D700001B0F0BDB0B582B000210028019155D07E
:100D8000816D39B9044600F0F3F820460021E16591
:100D900084F854100268916889004FF6C071C5F656
:100DA000FF7102D593680B4093609368DB002ED4EB
:100DB000936801F18051194041F08051916040F2F7
:100DC0003401C2F20001096842F663538909C0F296
:100DD0003E53A1FB03139909022303EB4101019147
:100DE0000199A1B1019901390191019979B1019953
:100DF00001390191019951B101990139019101998B
:100E000029B101990139019101990029EAD191682B
:100E1000C90011D4816D4FF0010E41F010018165C0
:100E2000C16D41F00101C16508E000BF4FF0010E46
:100E3000704602B0B0BD00BF4FF0000E9368846DE5
:100E400003F0040304F010041B19836D72D123F422
:100E50008173023383659368DB071AD148F2083C3B
:100E60004FF600544FF60063C4F2022CCFF6FF7425
:100E7000CFF6FF735CF804405CF803302343DB07D4
:100E800007D14368DCF8004024F47C142343CCF8F9
:100E90000030437E846BD0E902C144EA433390F8CA
:100EA0002040194341EA0C0141EA0443012C06D1D8
:100EB000416A0024CFF6FE7404EB41410B43846A7F
:100EC00024B1C16A04F4787421430B43D16844F21D
:100ED0000704CFF6F07421401943D1601169036B08
:100EE00021F0406119431161916809072DD490F8F0
:100EF0003430017E5B0090F83CC043EA8131D36816
:100F000044F20204A3431943D1601369BCF1010FF9
:100F100018D140F2FD7123EA010CD0E91034D0E978
:100F2000121543EA0C0323431943294341F00103FB
:100F30000AE000BF43F010024FF0010E82657046D8
:100F400002B0B0BD23F0010313610169136B0129E5
:100F500023F00F0302BFC16901390B431363826D94
:100F6000012161F301028265704602B0B0BD00004C
:100F7000F0B5D5B004466846002600250830C821E3
:100F80005496CDE95266CDE95066C4F20225FFF7CA
:100F9000C5FA206805F50041884201D055B0F0BD82
:100FA0004FF4001000906846019602F02FFE0028D2
:100FB00018BFFFF7E9FC40F68C40C4F2024001681C
:100FC000012641F4806101600168002701F480611D
:100FD00035913599016841F001010160006850A91F
:100FE00000F0010035903598032051902846509626
:100FF000529700F07FFD2120CDE935074FF4002006
:1010000040F20021CDE93A0735A8C2F20001CDE94E
:10101000377739973C97CDE93E664697CDE94077DB
:10102000CDE94277449700F04DF8002818BFFFF74C
:10103000ABFC40F2E81040F20022C2F20000C2F223
:101040000002002100F084FA002818BFFFF79CFC82
:1010500040F2E810C2F2000000F08CFB002818BF3C
:10106000FFF792FC40F250405021C2F20000C4F25F
:101070000201016000218122C0E90E11C0E91011B6
:10108000826400F0D9F8002818BFFFF77DFC40F219
:101090005045C2F2000540F2E811C2F200012846B4
:1010A00000F0ECFA002818BFFFF76EFC284610216C
:1010B0002565EC6500F0EAFB002818BFFFF764FC2B
:1010C00055B0F0BD00284FF0010218BF002901D132
:1010D00010467047B0B5D0E904C2C369D0F818E033
:1010E0001A43C36B1A4342EA0C0242EA0E020A6038
:1010F00003789B0616D5D0E909C34FF07C75D0F86C
:101100002CE0846B05EB03534FF47C7505EB0C1559
:1011100003F07C7344EA0E0405F47C7523432B43EF
:101120001A430A604268036B40F2FF252A401A43C3
:101130004A60C368B3F5007F05D0B3F5806F04D172
:101140000578AD0601D51A434A60436B1A434A60DD
:10115000436C43B1856C046C05F03F0544EA0545DA
:101160002A431A434A60B0F8683040F2000C8B60A2
:101170000278C0F2FF7C920722D5C56C4FF08054F4
:101180000CEB054505EA0C052B438B60056D04EA65
:10119000D5054FF000542B448B60456D04EA95054E
:1011A0004FF080442B448B60856D04EA55052B4439
:1011B0008B60C56DB5F1FF3FDCBF03F100438B6071
:1011C000036ECB60436E0B6103789B0702D414233C
:1011D00023E000BF036D0CF1C052002B48BF5B42FF
:1011E0006FF35F334B61456D2C04002D48BF05FB49
:1011F00002F422401A434A61836D0CF17844002BBB
:1012000048BF5B429AB28A61C36D1D04002B48BF80
:1012100003FB04F52A431C238A610022CA5000689C
:1012200083074FF4E06358BF4FF4A063184308628C
:10123000BDE8B04010467047B0B5044600F02AFD46
:10124000002C04BF0120B0BD00210546206884F8B1
:101250004C10022184F85410416941F006014161AB
:1012600020684169C9070BD000F014FD401B052818
:10127000F6D9012003221021A16584F85420B0BDC5
:10128000D4E90E124F23C5F20203984242EA01024A
:1012900040F24F31C5F202011CDC41F24F03C4F2AF
:1012A0000203984232DC40F24F23C4F20203984218
:1012B0005ADC40F24F13C4F20203984200F39480C8
:1012C0005023C4F20203984200F0E880D023C4F215
:1012D0000203E1E041F24F03C5F2020398422DDC24
:1012E00040F24F23C5F2020398424FDC40F24F1305
:1012F000C5F20203984200F383805023C5F2020333
:10130000984200F0CB80D023C4E000BF41F24F23CD
:10131000C4F20203984245DC41F24F13C4F20203C7
:10132000984277DC41F25003C4F20203984200F085
:10133000B58041F2D003C4F20203ADE041F24F2385
:10134000C5F2020398423FDC41F24F13C5F202039B
:1013500098426BDC41F25003C5F20203984200F060
:101360009D8041F2D00395E040F24F33C4F2020376
:10137000984265DC40F25023C4F20203984200F028
:101380008D8040F2D023C4F2020385E0884263DC02
:1013900040F25023C5F20203984200F07F8040F2F1
:1013A000D02377E041F24F33C4F2020398425DDC70
:1013B00041F25023C4F2020398426FD041F2D0238D
:1013C000C4F2020368E000BF41F24F33C5F20203EA
:1013D000984257DC41F25023C5F2020398425DD097
:1013E00041F2D02356E000BF40F25013C4F2020392
:1013F000984253D040F2D013C4F202034CE000BF35
:1014000040F25013C5F20203984247D040F2D01385
:1014100040E000BF41F25013C4F2020398423DD0B5
:1014200041F2D013C4F2020336E000BF41F2501380
:10143000C5F20203984231D041F2D0132AE000BF36
:1014400040F25033C4F20203984227D040F2D03326
:10145000C4F2020320E000BF40F25033C5F20203A1
:1014600098421BD040F2D03314E000BF41F2503319
:10147000C4F20203984211D041F2D033C4F2020305
:101480000AE000BF41F2D033C5F20203984205D012
:1014900041F25033C5F20203984201D1236C1A4342
:1014A0004369884223F4430342EA030242614FF056
:1014B00000020264636C43648264C264026511DCEE
:1014C00041F24F31C4F2020188421BDC40F250313C
:1014D000C4F2020188422DD040F2D031C4F20201A0
:1014E00026E000BF41F24F31C5F20201884215DC0F
:1014F00040F25031C5F2020188421BD040F2D03197
:1015000014E000BF41F25031C4F20201884211D010
:1015100041F2D031C4F202010AE000BF41F2D03101
:10152000C5F20201884205D041F25031C5F20201F4
:10153000884202D10021416581650021C167A06C0C
:10154000012220650020A16584F85420B0BD000070
:1015500000284FF0010318BF002A01D11846704738
:101560004369012B04D1042101230161184670470E
:101570002DE9F04186B0036842EA01070E461F4399
:10158000002908BF1646002B18BF1E467740B7F546
:10159000803F09D253B193F8206051B191F8207087
:1015A000BE4206D028E000BF052126E029B191F80F
:1015B000206092F82070BE421ED1022707730027D8
:1015C0000761176A00247E08CFF6010466F35964A8
:1015D00007F0020766F39A6407F10505A3B1E9B1C4
:1015E000904601AA019506460F46FFF7DDF8E8B1DF
:1015F0000620306102E000BF04210161012306B032
:10160000BDE8F04118467047E1B14FF6FC731A404F
:101610002243016041F82520022124E04FF6FC71AD
:101620001940214342F8251002601AE00399B2687C
:10163000304691420AD1416861B14FF6FC721140C7
:10164000214305E0026001210DE000BF57F825109D
:1016500048F825104FF6FC7101EA0801214347F8CC
:10166000251081680131816000230121036101732C
:1016700006B0BDE8F04118467047000000284FF062
:10168000010218BF002901D110467047D0F850C0A0
:10169000BCF1000FF8D090F8543090F85420022A92
:1016A00018BF052B06D140218165002180F84C1020
:1016B000012070470A7B022A04D101220A611046E8
:1016C000704700BF036840F24F32C5F202029342F6
:1016D00010DC41F24F32C4F2020293421ADC40F2B3
:1016E0005032C4F2020293422CD040F2D032C4F203
:1016F000020225E041F24F32C5F20202934215DCAC
:1017000040F25032C5F2020293421BD040F2D03276
:1017100014E000BF41F25032C4F20202934211D0F1
:1017200041F2D032C4F202020AE000BF41F250326C
:10173000C5F20202934205D041F2D032C5F2020254
:1017400093420DD14B68BCF1810F03D123B14167A6
:1017500000207047002BFAD0042008610120704758
:101760000A6892F820209207ECD503200861012036
:1017700070470000002804BF01207047016839B19C
:1017800042684AB18A4204BF0020704707E000BFA8
:1017900002210161012070474269012A04D104211C
:1017A00001610120704700BFF0B5022202730022E0
:1017B00002610A6A40F2000E5308CFF6010E63F38D
:1017C000596E02F00202856863F39A6E531D4FF65C
:1017D000FC72002D01EA020C47D0012D02D16546B2
:1017E00043E000BF4FF6FF726E1EAC1E21EA0202FC
:1017F000032C06F0030401D265461EE026F0030622
:101800004FF6FC77654600BF154355F82350043E5C
:1018100005EA070545EA020555F8235005EA0705DC
:1018200045EA020555F8235005EA070545EA020591
:1018300055F8235005EA0705E6D1B4B1154355F82C
:1018400023504FF6FC76012C05EA06050DD0154312
:1018500055F82350022C05EA060506D02A4352F813
:1018600023204FF6FC7402EA04054FF6FF7221EACA
:1018700002022A434EEA0C074160002142F823701D
:101880000161012101730020F0BD00000246002823
:101890004FF0010008BF7047CB0612D5136840F621
:1018A000FF7223EA020203F57B63C3F3C41301F062
:1018B000110198401129516814BF21EA0000084322
:1018C000506000207047000010B504680C232146CA
:1018D00004F57B6263F30B01C2F3C4120968D140C3
:1018E000C9074BD02169490544BF61695FEA41518D
:1018F00046D42169090544BF61695FEA015147D4B3
:101900002169C90444BF61695FEAC14148D42169C2
:10191000490444BF61695FEA414149D421698905AD
:1019200044BF61695FEA81514AD42169890444BF97
:1019300061695FEA81414FD42169C90544BF61698A
:101940005FEAC15164D4816DC1B101684A6942F056
:1019500002024A61012180F8541090F850201206CA
:1019600044BF426F1173816E0022002980F84C2021
:1019700008BF10BDBDE81040084700BF10BD00BF44
:101980004FF48061E160816D41F001018165B0E754
:101990004FF40061E160816D41F002018165AFE7C4
:1019A0004FF48051E160816D41F004018165AEE743
:1019B0004FF48041E160816D41F008018165ADE740
:1019C0004FF40071E160426E002AAED004469047A9
:1019D00020462468A9E700BF4FF40051E16090F869
:1019E000541004291ED16169012221F40051616162
:1019F000616941F00201616180F8542090F8501053
:101A0000090603D5416F0A730021A164C16EABE7DB
:101A100090F85010090611D4A16CD9B900F1540204
:101A200016E000BF052180F85410026F002A3FF431
:101A300083AF04469047204624687DE7E16F49B9AB
:101A4000A16C39B9012180F85410416F01F10C02E9
:101A5000012111704FF44071E160016E00220029F4
:101A600080F84C203FF46FAF0446884720466AE771
:101A700000280EBF0120016000207047F0B581B042
:101A800004460068082202EA503542F20C07C4F20C
:101A9000024700F01F01012057F8252000FA01F647
:101AA000164205D047F825606068002818BF8047B7
:101AB000381D50F82510314208D040F82560A06844
:101AC00020B101B0BDE8F040004700BF01B0F0BD5B
:101AD000022906D0012909D000291CBF0120704726
:101AE0004260082142500020704700BF042142504C
:101AF000002070470A68002A08BF70472DE9F04FA0
:101B000083B000F12003019347F67F73C0F22F03E7
:101B100003EA90234FF0000A4FF0010B00274FF02B
:101B2000000C002500930BE00A68013532FA05F33A
:101B30000CF1040C07F102070AF1080A00F09A8080
:101B40000BFA05F912EA0902EED0D1F804800292EC
:101B500048F01006122E1BD16FF0030202EA550660
:101B6000DDF804B00CF01C025BF80640D1F81080E0
:101B70000F2303FA02FE08F00F0324EA0E0403FA0F
:101B800002F222434BF80620D1F804804FF0010BFB
:101B900002680323BB4008F0030EDC439A430EFAAD
:101BA00007F31A43B8F1120F02605BD80BFA08F280
:101BB00012F0061F56D08368D1E902262340BE40AA
:101BC0003343836043684FEA181623EA0903AE40A3
:101BD00033434360C368BA4023401A43C260029C47
:101BE0005FEAC802A0D542F2000E25F00302C4F25B
:101BF000024E7244D2F860800AF018060F23B340F8
:101C000028EA0308009B03FA06F648EA060313666F
:101C1000DEF800804B6848EA0406DA0258BF28EA7A
:101C20000406CEF80060DEF804809A0248EA040652
:101C300058BF28EA0406CEF80460DEF884809A03D0
:101C400048EA040658BF28EA0406CEF88460DEF8A5
:101C50008020DB0342EA040658BF22EA0406CEF8DD
:101C6000806061E78A68BEF1030F08BF012AB1D125
:101C7000B5E700BF03B0BDE8F04F7047006908400A
:101C800018BF0120704700001823002A08BF28232E
:101C9000C150704740F65000C2F200000068704723
:101CA00040F2100040F65001C2F20000C2F2000102
:101CB00000780A68104408607047000080B503206F
:101CC00000F0B6F802F07AFE40F62041C4F202417C
:101CD00009684DF65C6201F00F01C0F60002515C2C
:101CE000C84040F23401C2F200010860042003F051
:101CF0001DFA0F2000F008F800281CBF012080BD4D
:101D000000F056F8002080BDB0B540F21005C2F2D8
:101D100000052978E1B304464EF21000CEF200002F
:101D20000068400710D403F04FFA022824D001289D
:101D30001AD078BB40F23400C2F200000068297863
:101D40004FF4FA5207E000BF40F23400C2F2000044
:101D500000684FF47A72B2FBF1F1B0FBF1F003F0DE
:101D600021FAA8B91BE000BF28784FF47A71B1FBC3
:101D7000F0F04FF4FA4106E028784FF47A71B1FBA5
:101D8000F0F04FF40041B1FBF0F003F00BFA30B18A
:101D90000120B0BD002003F005FA0028F8D14FF073
:101DA000FF302146002200F017F800206C60B0BD23
:101DB00070470000002848BF704700F01F01012253
:101DC000C0F34A1002FA01F14EF20012CEF2000204
:101DD00042F820107047000010B54EF60C5CCEF2B1
:101DE000000CDCF80030C3F3022E8EF00704042C44
:101DF00028BF0424BEF103034FF0FF3E38BF002389
:101E00000EFA04F4A14399400EFA03F39A431143E6
:101E100000F00F0200F160430901043A03F5644346
:101E20006244002848BF02F10C03197010BD000085
:101E30004EF60C51CEF200010A684FF6FF031A402D
:101E400060F30A2242F0806040F0FD700860704745
:101E500001220168C0F8D822002280F8CC22486D07
:101E600040F001004865486D40F0020200204A65DC
:101E70007047000070470000704700007047000086
:101E80002DE9F04F85B00446006804F0E5FD01043B
:101E90001AD4410534D441044ED4810400F1C084E5
:101EA000C10400F1C184010500F1F684010600F1CE
:101EB0000785810500F11485C00540F1D2842068B2
:101EC0004FF6FF6200F0CABC2068416C090440F183
:101ED000C88404F1140140F60F79039104F52771C9
:101EE000C0F2FF7946F2004704F5AA7B02910A2569
:101EF00009F54051C4F201070191CDF800B032E07C
:101F000020684FF6FF32416C11404164204600F0DA
:101F10006FFE94F89402012800F0A38401200025AC
:101F200084F8940265742068002104F013FE84F89C
:101F3000945205B0BDE8F08F20684BF6FF7200F0B8
:101F40008DBC00BF307807EBC000416889B24160AA
:101F50004168416031782046FFF78EFF2068416C70
:101F6000090440F17E84426C12F00F0A56D050F8FA
:101F70002A805FEA084140F1DE8150F82A100AEB1E
:101F80008A0201EA090141F080010BEBC20640F828
:101F90002A10317B002900F0AD80F178022940F051
:101FA000CD8031785FEA484200F134810495049A8B
:101FB000AAB100BF049A013A0492049A7AB1049A31
:101FC000013A0492049A52B1049A013A0492049A92
:101FD0002AB1049A013A0492049A002AEAD107EB42
:101FE000C10200235268C2F30947B269D21B38BF4D
:101FF0001A46B26140F258815FEA486200F161819D
:1020000050F8212048F2C00302EA09021A4340F8BE
:102010002120002F40F0568174E100BF0168D206F4
:1020200022D401EA090141F400410160207D57F802
:102030003000A16AC0F3094020630844A062204632
:102040000021FFF719FF607C00283FF487AFE06AAA
:1020500000287FF483AF607C216840F08000C86472
:10206000002060747AE700BF0A0500F19780090438
:102070007FF574AF016801EA090141F08001016058
:102080009BF800100495049AAAB100BF049A013A83
:102090000492049A7AB1049A013A0492049A52B1D1
:1020A000049A013A0492049A2AB1049A013A0492D9
:1020B000049A002AEAD107EBC1014968C1F3094338
:1020C000002BC4F8703100F09B82D4F8681100290D
:1020D0003FF444AFB4F85A2104F0C0FCD4F86801CE
:1020E000D4F870110844C4F8680120460021FFF7B5
:1020F000C5FE33E731780495049AA2B1049A013AF7
:102100000492049A7AB1049A013A0492049A52B160
:10211000049A013A0492049A2AB1049A013A049268
:10212000049A002AEAD107EBC1014968C1F30947C3
:10213000002F00F0E7807169F288DFE0317848F223
:10214000C00350F8212002EA09021A4340F8212076
:1021500050F82120520400F187800495049AA2B11E
:10216000049A013A0492049A7AB1049A013A0492C8
:10217000049A52B1049A013A0492049A2AB1049A38
:10218000013A0492049A002AEAD107EBC101496896
:10219000C1F30947002F40F09580B3E09BF8001091
:1021A0000495049AAAB100BF049A013A0492049AD1
:1021B0007AB1049A013A0492049A52B1049A013A0B
:1021C0000492049A2AB1049A013A0492049A002AC9
:1021D000EAD107EBC10100234968C0F2FF33C1F324
:1021E00009421940B1F5002FC4F8702140F03C833A
:1021F000B4F85A210299082304F030FC20680168E1
:1022000001EA090141F080010160204600F0F6FC7E
:10221000A4E600BF0495049AAAB100BF049A013A4B
:102220000492049A7AB1049A013A0492049A52B13F
:10223000049A013A0492049A2AB1049A013A049247
:10224000049A002AEAD157F831200023C2F3094743
:10225000B269D21B38BF1A46B26137D95FEA486209
:1022600040D4002F48D14DE00495049AAAB100BF94
:10227000049A013A0492049A7AB1049A013A0492B7
:10228000049A52B1049A013A0492049A2AB1049A27
:10229000013A0492049A002AEAD157F83110C1F3A6
:1022A00009474FBB2EE000BF50F82120019B1A4088
:1022B0004AF280035A4040F821205FEA48627FF5E5
:1022C0009FAEFFB17169728918E000BF50F82120FC
:1022D000019B1A404AF280035A4040F821205FEAED
:1022E0004862BED550F8212048F2C00302EA090234
:1022F0001A4340F821202FB1716932893B4604F01E
:10230000ADFB00E00027D6E906013944F16110B1C8
:102310003069B84204D931782046FFF7AFFD06E0B6
:102320007069C11920687161314603F0C3FF46F23C
:102330000047C4F201075FEA08607FF50FAE20682E
:102340000AEB8A0150F82A20039B03EBC10602EA3C
:10235000090141F4004140F82A10F278012A1DD108
:10236000307B00284FF00000B0613FF4F3AD70788F
:102370005FEA486100F1808001283FF4E3AD002866
:102380007FF4E8AD307807EBC000416821F07C4174
:102390004160416841F00041DBE500BF5FEAC851A0
:1023A00016D4317857F83120B369C2F309420027B7
:1023B0009B1A38BF3B46B36172D97169F369114406
:1023C00071619918F161314603F074FF22E200BF98
:1023D00031785FEA486367D40495049BABB100BFD2
:1023E000049B013B0493049B7BB1049B013B04933E
:1023F000049B53B1049B013B0493049B2BB1049BAE
:10240000013B0493049B002BEAD107EBC10E002390
:102410005EF8047FB569C7F30947ED1B38BF1D4659
:10242000B56140F28D80DDF800B05FEA484208D423
:1024300050F821204CF2800302EA09021A4340F8C6
:10244000212096F824100A25012940F0D781D6E9E9
:1024500004C1D6E907523D44394462457161F561D2
:1024600080F03881002A00F06981002394463362AD
:1024700086F8243066E100BF012800F0C9800028FA
:102480007FF468AD307857F8301021F07C4147F880
:10249000301057F8301041F0004147F8301059E53E
:1024A0002046FFF7E9FCB5E10495049BABB100BF02
:1024B000049B013B0493049B7BB1049B013B04936D
:1024C000049B53B1049B013B0493049B2BB1049BDD
:1024D000013B0493049B002BEAD157F83130B769D4
:1024E000C3F309430025FF1A38BF2F46B7614DD902
:1024F0005FEA484208D550F821204CF2800702EAF2
:1025000009023A4340F8212096F824200A25012A9E
:1025100040F07481D6E90472D6E9075E02EB030C41
:10252000EA18BE45C6F814C0F26180F0D7800022D8
:10253000BEF1000F86F8242040F0D3809E46D1E003
:102540007778DDF800B0012F6ED0002F4FF00A052C
:1025500040F0818046F20043C4F2010353F8317029
:1025600027F07C4743F8317053F8317047F000474B
:1025700043F83170DEF8007027F07C47CEF8007029
:10258000DEF8007047F0004763E000BF7378012B6E
:1025900000F086804FF00A05CBB946F2004CC4F239
:1025A000010C5CF831300CEBC10723F07C434CF894
:1025B00031305CF8313043F000434CF831307B6807
:1025C00023F07C437B607B6843F000437B60022AFE
:1025D00009D150F8212009F130031A4048F2A00334
:1025E0005A4040F821202046FFF746FC46F20047BB
:1025F0005FEA4840C4F201077FF5B0AC42E000BF9B
:102600000168019A11404BF2800251400160A5E43B
:10261000307857F8301089B247F8301057F830103A
:1026200047F8301096E400BF46F20043C4F20103BD
:1026300053F831700A25BFB243F8317053F8317046
:1026400043F83170DEF80070BFB2CEF80070DEF8EB
:102650000070CEF8007046F20047022AC4F201076B
:1026600009D150F8212009F130031A4048F2A003A3
:102670005A4040F821202046FFF7FEFB5FEA484021
:102680003FF56CAC206831784CF2800350F8212083
:1026900002EA09021A4340F82120FFF75FBC00BF9D
:1026A00046F20045C4F2010555F8313005EBC1078B
:1026B0009BB245F8313055F8313045F831307B6800
:1026C0000A259BB27B607B687B60022A3FF481AF66
:1026D00089E700BFA2EB0C02326233E0AEEB0702E7
:1026E000BE4632627278DDF800B046F200470A2535
:1026F000C4F20107012A17D0002A64D157F831200B
:10270000BEF1000F22F07C4247F8312042D0BEF1EA
:102710003E0F47D80EF0010202EB5E0257F831304F
:1027200043EA82624DE000BF57F8312092B247F889
:10273000312057F8312042EA0E4242E0002286F86A
:102740002420BC467278DDF800B00A25012A17D093
:10275000002A4ED1DEF80020BCF1000F22F07C42AE
:10276000CEF800201AD0BCF13E0F31D80CF0010297
:1027700002EB5C02DEF8007047EA826237E000BFDD
:10278000DEF8002092B2CEF80020DEF8002042EA07
:102790000C422CE057F8312011E000BFDEF8002099
:1027A00023E000BF5FEACE634FEA5E124FF0FF33D3
:1027B00008BF03EB5E1257F8313043EA826242F001
:1027C000004247F8312032891FFA8EF3614613E048
:1027D0004FEA5C125FEACC674FF0FF3308BF03EBB0
:1027E0005C12DEF8007047EA826242F00042CEF8E6
:1027F000002072891FFA8CF304F0B2F92068317856
:1028000009F1300350F821201A4048F2B0035A4031
:1028100040F8212046F20047C4F20107FFF79EBBB3
:1028200020684DF6FF7219E02068016C21F0040168
:102830000164016C21F00801016494F8CC020128C4
:1028400006D1002084F8CC0220460021FFF712FBBD
:10285000204600F0CFF920684EF6FF72416C11401F
:10286000416405B0BDE8F08F0168019A114049F25A
:10287000800251400160016809F13002114048F2C4
:10288000900251400160016801EA090141F08001B4
:10289000016005B0BDE8F08F21684FF2FF72086C4F
:1028A00040F008000864486C10404864086C40F030
:1028B000040220460A6405B0BDE8F04F00F0B6B946
:1028C00020684FF67F72416C1140416494F8CC123D
:1028D00091B1204605B0BDE8F04F00F0A7B900BFA8
:1028E00021684FF6FF52486C024020464A6405B00A
:1028F000BDE8F04F00F080B9016C41F004010164C3
:10290000016C41F008010164012184F8CC12406D92
:102910003C2101EA900220460121C4F8D02205B0F2
:10292000BDE8F04FFFF7A6BA002804BF01207047AA
:10293000F0B581B0044690F8950228B9002084F8DB
:102940009402204600F01CF9032084F895022068C8
:1029500003F0A6FC94E80F00267C009603F064FCCC
:10296000002840F0F4802068002104F0E1F80028FD
:1029700040F0ED8094F804E0BEF1000F00F0E0803C
:102980000EF0030CBEF1040F4FF0000238D30EF02E
:10299000FC03A4F1A0000321012500BFCE1E80F896
:1029A000B4608E1E80F8DC604E1E80F8046180F8F2
:1029B0002C110E1D013180F8B55080F8B720C0E908
:1029C0003122C0F8CC2080F8DD5080F8DF20C0E94B
:1029D0003B22C0F8F42080F8055180F80721C0E9B7
:1029E0004522C0F81C2180F82D5180F82F21C0E924
:1029F0004F22C0F84421A03099423146CED1F21E78
:102A0000BCF1000F2ED002EB820104F1140000EBA8
:102A1000C105012300F831200021BCF1010F6B70CA
:102A2000E970C5E90411A9611CD0551C05EB8506A8
:102A3000BCF1020F00EBC60700F836507B70F9704E
:102A4000C7E90411B9610DD0911C01EB8102012588
:102A500000EBC20300F8321000205D70D870C3E9AB
:102A600004009861BEF1000F6AD0BEF1040F4FF070
:102A7000000235D30EF0FC0003212346CF1E83F85D
:102A800054718F1E83F87C714F1E83F8CC110D1D7D
:102A9000013183F8552183F85721C3E95922C3F83E
:102AA0006C2183F87D2183F87F21C3E96322C3F879
:102AB000942183F8A52183F8A47183F8A721C3E9A1
:102AC0006D22C3F8BC2183F8CD2183F8CF21C3E95F
:102AD0007722C3F8E421A03381422946CED1EA1EF1
:102AE000BCF1000F2CD002EB820304F5AA7000EBBE
:102AF000C3070021BCF1010F797000F83320F97091
:102B0000C7E90411B9611BD0531C03EB8307BCF167
:102B1000020F00EBC70600F837307170F170C6E99C
:102B20000411B1610CD0911C01EB8102002700EB74
:102B3000C20300F832105F70DF70C3E904779F6151
:102B400094E80F00277C009703F09AFB30B1022035
:102B500084F89502012001B0F0BD00BF0020607430
:102B6000012084F89502207B012804BF2046FFF74E
:102B70006FF9206803F07CFB002001B0F0BD00007D
:102B800010B5B6B0044602A80830C821FDF7C6FC4F
:102B9000206846F20001C4F20101884202D036B03A
:102BA00010BD00BF10200390002002903020339011
:102BB00002A801F02BF8002818BFFDF7E5FE00F091
:102BC00037F840F6A440C4F202400168002241F008
:102BD000807101600068002100F080700190019810
:102BE0004A20FFF7F9F84A20FFF7E4F836B010BDA5
:102BF00070470000704700007047000070470000F9
:102C000090F89412012904BF0220704710B50168A2
:102C1000012280F894220446084603F015FF20683C
:102C200003F01EFB002084F8940210BD70470000E2
:102C300040F63800C4F20240016841F000710160C2
:102C40007047000010B540F6284CC4F2024CDCF886
:102C50000CE0DCF80010DCF80020C2F30523DCF8FF
:102C60000020DCF81040DBB3E408D20604EAE2728C
:102C700001F003016FF35F3200EE102A0329B8EE72
:102C8000400A6FF35F2E37D002292FD001295CF85C
:102C9000281C49F20002C1F3C101C0F2D03222FA6D
:102CA00001F101EE101A02EE103AB8EE411AB8EE38
:102CB000422A9FED4F3A81EE021A02EE10EA20EE10
:102CC000030AB8EE422A30EE020AB7EE002A30EECE
:102CD000022A5CF8281C22EE010A89012CD527E083
:102CE0000021C0E90011816010BD00BF01EE103A63
:102CF0009FED402A04E000BF01EE103A9FED3B2A11
:102D0000B8EE411A82EE012A01EE10EA9FED383A40
:102D1000B8EE411A20EE030A30EE010AB7EE001AAF
:102D200030EE011A5CF8281C22EE010A890103D555
:102D3000DCF80010C90307D4002101605CF8281CEE
:102D4000890118D41BE000BFDCF80C10B7EE002A94
:102D5000C1F3462101EE101AB8EE411A31EE021A03
:102D600080EE011ABCEEC11A11EE101A01605CF877
:102D7000281C890103D5DCF80010890302D4002146
:102D800012E000BFDCF80C10B7EE002AC1F30641D8
:102D900001EE101AB8EE411A31EE021A80EE011A55
:102DA000BCEEC11A11EE101A41605CF8281C8901B2
:102DB00044BFDCF800105FEA413103D40021816098
:102DC00010BD00BFDCF80C10B7EE002AC1F306619D
:102DD00001EE101AB8EE411A31EE021A80EE010A25
:102DE000BCEEC00A10EE101A816010BD20BCBE4BB4
:102DF000000000390024744A10B540F62C4CC4F28F
:102E0000024CDCF810E0DCF80010DCF80020C2F323
:102E10000523DCF80020DCF81440DBB3E408D2061C
:102E200004EAE27201F003016FF35F3200EE102A50
:102E30000329B8EE400A6FF35F2E37D002292FD056
:102E400001295CF82C1C49F20002C1F3C101C0F257
:102E5000D03222FA01F101EE101A02EE103AB8EE69
:102E6000411AB8EE422A9FED4F3A81EE021A02EE65
:102E700010EA20EE030AB8EE422A30EE020AB7EE5C
:102E8000002A30EE022A5CF82C1C22EE010A09010D
:102E90002CD527E00021C0E90011816010BD00BFE2
:102EA00001EE103A9FED402A04E000BF01EE103A17
:102EB0009FED3B2AB8EE411A82EE012A01EE10EA9C
:102EC0009FED383AB8EE411A20EE030A30EE010ABF
:102ED000B7EE001A30EE011A5CF82C1C22EE010A43
:102EE000090103D5DCF80010C90307D400210160F3
:102EF0005CF82C1C090118D41BE000BFDCF8101092
:102F0000B7EE002AC1F3462101EE101AB8EE411ABD
:102F100031EE021A80EE011ABCEEC11A11EE101A3F
:102F200001605CF82C1C090103D5DCF80010890352
:102F300002D4002112E000BFDCF81010B7EE002A26
:102F4000C1F3064101EE101AB8EE411A31EE021A31
:102F500080EE011ABCEEC11A11EE101A41605CF845
:102F60002C1C090144BFDCF800105FEA413103D496
:102F70000021816010BD00BFDCF81010B7EE002A00
:102F8000C1F3066101EE101AB8EE411A31EE021AD1
:102F900080EE010ABCEEC00A10EE101A816010BD6E
:102FA00020BCBE4B000000390024744A10B540F626
:102FB000304CC4F2024CDCF814E0DCF80010DCF811
:102FC0000020C2F30523DCF80020DCF81840DBB356
:102FD000E408D20604EAE27201F003016FF35F3203
:102FE00000EE102A0329B8EE400A6FF35F2E37D0A7
:102FF00002292FD001295CF8301C49F20002C1F3EC
:10300000C101C0F2D03222FA01F101EE101A02EE33
:10301000103AB8EE411AB8EE422A9FED4F3A81EECF
:10302000021A02EE10EA20EE030AB8EE422A30EE4F
:10303000020AB7EE002A30EE022A5CF8301C22EEBB
:10304000010A89002CD527E00021C0E90011816028
:1030500010BD00BF01EE103A9FED402A04E000BF12
:1030600001EE103A9FED3B2AB8EE411A82EE012A9A
:1030700001EE10EA9FED383AB8EE411A20EE030A4D
:1030800030EE010AB7EE001A30EE011A5CF8301C7F
:1030900022EE010A890003D5DCF80010C90307D429
:1030A000002101605CF8301C890018D41BE000BFCF
:1030B000DCF81410B7EE002AC1F3462101EE101A15
:1030C000B8EE411A31EE021A80EE011ABCEEC11AB6
:1030D00011EE101A01605CF8301C890003D5DCF891
:1030E0000010890302D4002112E000BFDCF81410A4
:1030F000B7EE002AC1F3064101EE101AB8EE411AEC
:1031000031EE021A80EE011ABCEEC11A11EE101A4D
:1031100041605CF8301C890044BFDCF800105FEAB5
:10312000413103D40021816010BD00BFDCF81410D0
:10313000B7EE002AC1F3066101EE101AB8EE411A8B
:1031400031EE021A80EE010ABCEEC00A10EE101A2F
:10315000816010BD20BCBE4B000000390024744AC1
:1031600080B584B04FF6FF730246C0F23F030020E3
:103170009B1A70EB0103C0F2618041F6FF739B1A4A
:1031800070EB0103C0F29080B2F1010E61F1000C0E
:10319000DEF11F034FF0000373EB0C03C0F0CE8190
:1031A000DFE81EF02000A6029A03EA019A039A03C0
:1031B0009A0346029A039A039A039A039A039A037C
:1031C0009A0376029A039A039A039A039A039A033C
:1031D0009A039A039A039A039A039A039A039A0307
:1031E0009A03160240F60040C4F20240D0F8D8100C
:1031F00011F0070100F000840268012903D112F0E8
:10320000006240F01D840268022903D112F00052CE
:1032100040F0D38303680268032903D113F002034B
:1032200040F0A984042903D112F4007240F0D5843F
:10323000D0F8F000052900F063BC00BF6FF04043F8
:103240009B1A70EB01036FDA072940F3CD80B1F5CB
:10325000007F80F2218181F00803134300F0EC82AB
:1032600081F01001114340F0378340F60040C4F272
:103270000240D0F8E41001F03001102900F0DA83A8
:103280000268202903D112F0005240F096830068B2
:1032900010F400501CBF46F60040C0F2DC2030297C
:1032A00018BF002018E300BF4FF6FF739B1A4FF0C2
:1032B000000C7CEB010380F2BB804FF6FF73C0F281
:1032C00003039B1A7CEB0103C0F2028182F480337A
:1032D0000B4300F0E58282F40032114340F0FC829F
:1032E00040F60040C4F20240D0F8DC10C1F30221E5
:1032F000052900F2AB83DFE811F0390105037903FA
:10330000CD03C303070000BFD0F8E81003680268CC
:103310009B0701F0404102D5002900F02C84920562
:1033200000F1368400F037BC6FF078439B1A4FF001
:1033300000038B4124DB82F480030B4300F05682B0
:1033400082F000730B4300F0F98182F08062114338
:1033500040F0C28240F60040C4F20240D0F8E810CB
:10336000026801F03001920440F14C83002940F0E2
:10337000498346F60040C0F2DC2004B080BD00BFA7
:1033800082F000630B4300F03B8282F080530B43DA
:1033900000F0068282F00052114340F09D8240F618
:1033A0000041C4F20241D1F8E000C0F38212042AC5
:1033B00000F24C8348F20000C0F2BB00DFE812F0DC
:1033C0003A03A20236028C02060000BFD1F8E820C0
:1033D0000B6808689B0702F0404240F10282002A15
:1033E00000F0A083FDE100BF82F080430B4300F0BA
:1033F000CB8281F00203134300F08A8281F0040142
:10340000114340F0698240F60040C4F20240D0F817
:10341000E8100068800301F4407040F10583002843
:1034200040F0028347F64000C0F27D1004B080BD3A
:1034300082F400530B4300F0C78282F480430B43B5
:1034400000F07E8282F40042114340F0458240F653
:103450000040C4F20240D0F8E41001F44011B1F58C
:10346000801F00F0C382002900F08080026800689D
:10347000B1F5001F03D112F0020240F0538310F4A3
:1034800000701CBF40F60010C0F23D00B1F5401FB7
:1034900018BF002004B080BD81F40073134300F016
:1034A000E78181F48051114340F0168240F60041DB
:1034B000C4F20241D1F8E40000F04060B0F1806F46
:1034C00000F09482002851D00A68B0F1006FF9E151
:1034D00082F480230B4300F0018282F40012114336
:1034E00040F0FA8140F60040C4F20240D0F8E81003
:1034F00001F00701022900F01D82012900F0DC82A1
:10350000002900F011820268032902D112F400326E
:1035100088D102680068042903D112F0020240F049
:10352000018310F400701CBF40F60010C0F23D0093
:10353000052918BF002004B080BD00BF82F480526E
:10354000114340F0C98140F60040C4F20240D0F877
:10355000E01001F0E061B1F1007F00F02E82B1F1E6
:10356000807F00F06D82002940F0B88204B0BDE891
:10357000804001F0FFB900BF40F60040C4F20240B5
:10358000D0F8D81011F4E07100F02A8202684029C6
:1035900003D112F0006240F053820268802903D107
:1035A00012F0005240F0098203680268C02903D17A
:1035B00013F0020340F0DF82B1F5807F03D112F4F3
:1035C000007240F00A83D0F8F000B1F5A07F97E2D6
:1035D00040F60040C4F20240D0F8D81011F4603137
:1035E00000F0FE810268B1F5004F03D112F00062D5
:1035F00040F026820268B1F5803F03D112F00052FC
:1036000040F0DB8103680268B1F5C03F03D113F0DD
:10361000020340F0B082B1F5003F03D112F4007212
:1036200040F0DB82D0F8F000B1F5203F68E200BF47
:1036300040F60040C4F20240D0F8D81011F46061A6
:1036400000F0CE810268B1F5007F03D112F0006274
:1036500040F0F6810268B1F5806F03D112F000529C
:1036600040F0AB8103680268B1F5C06F03D113F07D
:10367000020340F08082B1F5006F03D112F40072B2
:1036800040F0AB82D0F8F000B1F5206F38E200BF17
:1036900040F60040C4F20240D0F8D81011F4E041E6
:1036A00000F09E810268B1F5805F03D112F00062E4
:1036B00040F0C6810268B1F5005F03D112F00052FC
:1036C00040F07B8103680268B1F5405F03D113F0DD
:1036D000020340F05082B1F5804F03D112F4007222
:1036E00040F07B82D0F8F000B1F5A04F08E200BFB7
:1036F00040F60040C4F20240D0F8D81011F0380172
:1037000000F06E810268082903D112F0006240F0D7
:103710009781102900F0518103680268182903D1AC
:1037200013F0020340F02782202903D112F4007223
:1037300040F05382D0F8F0002829E1E140F6004142
:10374000C4F20241D1F8F000D1F8F020920700F461
:10375000407203D5B2F5807F00F06181D1F8F000AE
:10376000000103D5B2F5007F00F07D80086880037A
:103770004FF0000040F1B080B2F5407F40F0AC80E7
:10378000C86910F4785F00F06181C86947F64001AC
:10379000C0F30520C0F27D11B1FBF0F004B080BD94
:1037A00040F60041C4F20241D1F8E000C0F3C20289
:1037B000042A00F24B8148F20000C0F2BB00DFE8AF
:1037C00012F03901A10035008B000500D1F8E82086
:1037D0000B6808689B0702F0404202D5002A00F0FF
:1037E000A181800500F1F681FEE100BF40F60040B6
:1037F000C4F20240D0F8E400400640F11B8199E099
:1038000040F60041C4F20241D1F8E00000F00702A6
:10381000042A00F21B8148F20000C0F2BB00DFE87E
:1038200012F00901710005005B00770101A8FFF7A4
:10383000BDFB019804B080BD40F60040C4F20240D8
:10384000D0F8E810D0F8F02001F0C001920702D5BE
:10385000002900F0E480D0F8F020120140F122812C
:10386000402940F01F814FF4FA4004B080BD00BFF2
:1038700040F60041C4F20241D1F8E800D1F8F0204E
:1038800000F00800920702D5002800F0C880D1F8A7
:10389000F010002818BF4FF4FA4001F00061AFE1CA
:1038A00040F60041C4F20241D1F8E40000F040705B
:1038B000B0F1807F00F09A80002800F091800A68C3
:1038C000B0F1007F4FF0000006D112F0020203D0E9
:1038D0000868C0F3C10050E104B080BD40F600406C
:1038E000C4F20240D0F8DC10C1F30231052900F225
:1038F000AD80DFE811F0750007007B00CF00C50048
:10390000370100BF01A8FFF777FA019804B080BD26
:1039100040F60040C4F20240D0F8E41001F0030188
:10392000DFE801F0028808D004B0BDE8804000F074
:10393000C1BF00BF01A8FFF75FFA039804B080BDC4
:1039400040F60040C4F20240D0F8E41001F44021F7
:10395000B1F5802F4AD0002942D002680068B1F545
:10396000002F03D112F0020240F0DC8010F400704E
:103970001CBF40F60010C0F23D00B1F5402F18BF4B
:10398000002004B080BD00BF40F60040C4F20240F9
:10399000D0F8E01011F460612ED00268B1F5007F1C
:1039A00002D112F000624BD10268B1F5806F40F095
:1039B000BD8012F0005200F0B98001A8FFF7F6FABE
:1039C000029804B080BD00BF40F60040C4F202403F
:1039D000D0F8E41001F44031B1F5803F06D0C9BB06
:1039E00004B0BDE8804000F07DBF00BF01A8FFF734
:1039F000DDFA039804B080BD04B0BDE8804000F05B
:103A000095BF00BF0268920101D5102912D0D0F8ED
:103A1000F020920740F1CC80202940F0C9804FF47B
:103A2000004004B080BD00BFB0F5007F08D0B0F505
:103A3000807F0BD101A8FFF705F9029804B080BD83
:103A400001A8FFF7D9F9029804B080BD002004B0A6
:103A500080BD00BF02680068B1F5003F02D112F0DE
:103A600002025FD110F400701CBF40F60010C0F2DB
:103A70003D00B1F5403F18BF002004B080BD00BF3D
:103A8000D0F8F0004FF4FA41000101EAE07004B010
:103A900080BD00BFD0F8F0004FF4004101EA803053
:103AA00004B080BD0068802900F400724FF000006F
:103AB00008BF48F2120085E004B0BDE8804000F085
:103AC0007DBF00BFD0F8E810036802689B0701F0D3
:103AD00040415BD500294ED058E000BF0368026822
:103AE000B1F1407F02D113F0020344D1B1F1806FF4
:103AF00002D112F4007270D1D0F8F000B1F1A06FD1
:103B000000F002024FF0000008BF900304B080BD37
:103B1000D1F8E8200B6808689B0702F0404257D5AF
:103B2000002A55D1C0F3C10027E000BF0368026836
:103B3000B1F5C06F02D113F002031CD1B1F5006FD3
:103B400002D112F4007248D1006810F400301CBF9A
:103B500047F64000C0F27D10B1F5206F18BF00207D
:103B600004B080BDD0F8E810036802689B0701F03C
:103B700040410BD551B9C2F3C10049F20001C0F276
:103B8000D03121FA00F004B080BD00BF920502D50B
:103B9000B1F1804F21D00068B1F1004F00F4003244
:103BA0004FF0000004BF47F64000C0F27D1009E06E
:103BB000D0F8F000302900F000624FF0000008BF9C
:103BC0004FF4FA40002A08BF104604B080BD00BF81
:103BD000800509D5B2F1804F06D140F60010C0F241
:103BE0003D0004B080BD00BF0868B2F1004F00F492
:103BF00000314FF0000004BF47F64000C0F27D10D6
:103C0000002908BF084604B080BD00002DE9F04738
:103C10000446006840F62848C101C4F2024807D5AE
:103C2000D8F8C010A26D21F040411143C8F8C0106F
:103C3000C00712D0E06D052800F25482DFE810F0D2
:103C40000600B404EA01060006000600D8F8B01029
:103C500021F007010843C8F8B0000025207880074C
:103C600002D428461BE000BF206E4FEAF001052970
:103C700000F23A822846DFE811F00700A304D701DA
:103C800007000700070000BF064648B9D8F8B00093
:103C9000216E20F038000843C8F8B00000202E46FE
:103CA0002178490719D5616E4FEAB111052900F253
:103CB0002382DFE811F007008B04BF010700070033
:103CC000070000BF054648B9D8F8B000616E20F47F
:103CD000E0700843C8F8B000002035462178090795
:103CE00019D5A16E4FEA7121052900F20D82DFE896
:103CF00011F007007304A70107000700070000BFC9
:103D0000064648B9D8F8B000A16E20F460600843B8
:103D1000C8F8B00000202E462178C90619D5E16EFA
:103D20004FEA3131052900F2F781DFE811F0070091
:103D30005B048F0107000700070000BF054648B974
:103D4000D8F8B000E16E20F4E0400843C8F8B000B5
:103D5000002035462178890619D5216F4FEAF131C7
:103D6000052900F2E181DFE811F007004304770143
:103D700007000700070000BF064648B9D8F8B000A2
:103D8000216F20F460300843C8F8B00000202E46B0
:103D90006178C90619D5616F4FEA3161052900F2D2
:103DA000CB81DFE811F007002B045F01070007005B
:103DB000070000BF054648B9D8F8B800616F20F089
:103DC000E0600843C8F8B8000020354661788906ED
:103DD0001AD5A16F6FF0010202EB3142022A08D31B
:103DE0004FEA314129B101292ED104F1300001F00F
:103DF000E3FB064648B9D8F8BC00A16F20F4403078
:103E00000843C8F8BC0000202E466178490620D53A
:103E1000E16F6FF0010202EBB142022A08D34FEAD0
:103E2000B14129B1012937D104F1300001F0C4FBBF
:103E3000054678B9D8F8BC00E16F20F4402008436B
:103E4000C8F8BC00002004E0012001266178490682
:103E5000DED435466178090623D5D4F880106FF09A
:103E6000010202EB3152022A08D34FEA315129B143
:103E7000012939D104F1300001F09EFB064688B9D2
:103E8000D8F8BC00D4F8801020F440100843C8F8DB
:103E9000BC00002005E000BF012001256178090673
:103EA000DBD42E46A178C90723D0D4F8841000298A
:103EB00018BFB1F1007F0DD10746D8B9D8F8BC00C2
:103EC000D4F8841020F040700843C8F8BC000020EB
:103ED0000FE000BFB1F1807F30D104F1300001F07C
:103EE0006BFB074630B9E9E701200126A178C90735
:103EF000DBD137466179C90625D5D4F88810002969
:103F000018BFB1F1006F0DD10546E8B9D8F8BC0073
:103F1000D4F8881020F040600843C8F8BC000020A6
:103F200011E000BFB1F1806F40F0708004F130000B
:103F300001F042FB054638B9E8E700BF0120012740
:103F40006179C906D9D43D46D4E9001240F61C4730
:103F5000C4F20247120508D53A6822F400423A60DA
:103F6000D4F8C8203B681A433A6089031AD5D4F8BC
:103F70008C104FEA3121052900F2E680DFE811F0CC
:103F8000060044037800060006000600064650B905
:103F9000D8F8B400D4F88C1020F4E0600843C8F8D6
:103FA000B40000202E46A17849071BD5D4F8901004
:103FB0004FEA3131052900F2CF80DFE811F0070028
:103FC0002B035F0007000700070000BF054650B93C
:103FD000D8F8B400D4F8901020F4E0400843C8F8B2
:103FE000B40000203546A17889065ED5D4F8A0102B
:103FF000052900F2B980022946D0002802464AD09D
:10400000D4E900139B0555D4B4E000BF012001257D
:104010009AE700BF04F1300001F0CEFA054600280F
:104020007FF41CAEC8E200BF04F1300001F0C4FA16
:104030002AE600BF04F1300001F0BEFA42E600BFFC
:1040400004F1300001F0B8FA5AE600BF04F1300084
:1040500001F0B2FA72E600BF04F1300001F0ACFAF0
:104060008AE600BF04F1300001F0A6FAA2E600BF24
:1040700004F1300001F0A0FA88E700BF04F130003D
:1040800001F09AFAA2E700BF04F1080001F01EFA5D
:1040900000280246B4D1D8F8C000D4F8A01020F00F
:1040A00007000843C8F8C00000202A46D4E90013DE
:1040B0009B055FD5D4F8A43043F00806082E0BD139
:1040C000814660B9D8F8C00020F008001843C8F84D
:1040D000C00000204EE000BF01204FF0010989011F
:1040E0004BD4A6E00125B9E5012001262178490736
:1040F0003FF5D9ADF1E500BF012001252178090781
:104100003FF5EFAD07E600BF012001262178C90683
:104110003FF505AE1DE600BF012001252178890687
:104120003FF51BAE33E600BF012001266178C906CA
:104130003FF531AE49E600BF0120012561788906CF
:104140003FF547AE60E600BF01200126A178490790
:104150003FF52CAF46E700BF01200125A178890675
:104160003FF544AFA1E700BF01200122D4E90013CD
:104170009B059FD4914689015BD54FF60846CFF643
:10418000FF768246B85940F00100B851FDF782FD34
:10419000054600BFB859C00708D1FDF77BFD401B9D
:1041A0000228F7D90320032144E000BF5046BAF1AA
:1041B000000F51463ED1D8F8C80010F4407018D016
:1041C000D4F8BC10884211D0D8F8C800D8F8C8106C
:1041D00020F4407041F48031C8F8C810D8F8C810F5
:1041E00021F48031C8F8C810C8F8C800C00740F0F2
:1041F0001D82D4F8BC0039684FF6CF7300F44072CA
:1042000021F47C51C0F2FF0303EA1013B2F5407FA2
:1042100008BF19433960D8F8C8106FF31F3021F474
:104220004071C8F8C810D8F8C8100843C8F8C800CA
:1042300000204946226853011CD5D4F898306FF00D
:10424000010707EB3317022F0AD34FEA33173FB1A9
:10425000012F17D1D8F8007047F40037C8F8007064
:10426000054640B9D8F8C00020F030001843C8F81F
:10427000C00000200D46510208D42E46E1780907FF
:1042800014D451E0012001255102F6D5D4F89C1038
:10429000402921D091BBD8F8001041F40031C8F872
:1042A00000100646F8B1E17809073DD5D4F8AC1006
:1042B000042900F25F81DFE811F005003F012700CB
:1042C0002B002B00D8F8001041F40031C8F8001082
:1042D000054650BB1EE000BF04F1080001F0F6F8EF
:1042E00000280646DFD1D8F8BC00D4F89C1020F096
:1042F00040000843C8F8BC000020BEE701200126AA
:10430000E1780907D2D40FE004F1300001F054F94C
:10431000054650B9D8F8B800D4F8AC1020F0070022
:104320000843C8F8B80000203546E178C90627D50B
:10433000D4F8B0104FEAF101042900F21F81DFE840
:1043400011F0050005010F0013001300D8F800104C
:1043500041F40031C8F80010064690B906E000BFED
:1043600004F1300001F028F9064650B9D8F8B80039
:10437000D4F8B01020F038000843C8F8B800002086
:104380002E46E178890627D5D4F8B4104FEAB1114A
:10439000042900F2F780DFE811F00500E3000F00C8
:1043A00013001300D8F8001041F40031C8F80010D1
:1043B000054690B906E000BF04F1300001F0FCF8BA
:1043C000054650B9D8F8B800D4F8B41020F4E0701D
:1043D0000843C8F8B80000203546E17849061BD5E7
:1043E000D4F8B8104FEA7121052900F2D580DFE832
:1043F00011F007001701CD0007000700070000BFFC
:10440000064650B9D8F8B800D4F8B81020F4606067
:104410000843C8F8B80000202E46217989071BD52B
:10442000D4F8A810032900F28380DFE801F0090323
:10443000770900BFD8F8001041F40031C8F8001027
:10444000054650B9D8F8BC00D4F8A81020F00300F5
:104450000843C8F8BC00002035462179490721D51A
:10446000D4F8941059B1B1F5007F0BD0B1F5807F2D
:104470003CD1D8F8001041F40031C8F800100646CD
:1044800088B905E004F1080001F020F8064650B9AB
:10449000D8F8C000D4F8941020F440700843C8F84D
:1044A000C00000202E462179C90624D5D4F8C410B6
:1044B000302909D0202909D010292DD1D8F8001091
:1044C00041F40031C8F80010B0B904E004F1300044
:1044D00001F072F880B9D8F8BC00D4F8C41020F00C
:1044E00030000843C8F8BC0005E000BF01200126E9
:1044F0002179C906DAD430462179090758BFBDE8C9
:10450000F087D8F8C010D4F8C02021F0C0011143C2
:10451000C8F8C010BDE8F0870120EDE704F10800FD
:1045200000F0D4FF002805467FF497AF8AE700BF6C
:104530000120012591E700BF04F1080000F0C6FF4B
:10454000002805467FF4F1AEE4E600BF04F1080060
:1045500000F0BCFF002806467FF413AF06E700BF5B
:1045600004F1080000F0B2FF002805467FF435AFE3
:1045700028E700BF01200125D7E600BF0120012662
:10458000FFE600BF0120012527E700BF04F130004E
:1045900001F012F834E700BF0120012621798907D4
:1045A0003FF53EAF58E700BF04F1080000F08EFF72
:1045B000054600287FF452ABE06DFFF747BB00BF14
:1045C00004F1080000F082FFFFF75EBB04F1080071
:1045D00000F07CFFFFF776BB04F1080000F076FFE7
:1045E000FFF78EBB04F1080000F070FFFFF7A6BBD9
:1045F00004F1080000F06AFFFFF7BEBB04F10800F9
:1046000000F064FFFFF7D6BB04F1080000F05EFF86
:10461000FFF7BCBC04F1080000F058FFD6E400BF6F
:1046200004F1080000F052FFEAE600BFFDF732FB9C
:10463000054641F2883600BFD8F8C80080073FF52C
:10464000D8ADFDF727FB411B0320B1424FF003011A
:10465000F2D9EFE52DE9F04381B0002800F0D080D9
:1046600042F20008C4F202080446D8F800000D46E1
:1046700000F00F0088420DD2D8F8000020F00F00A3
:104680002843C8F80000D8F8000000F00F00A84246
:1046900040F0B680206840F62047C106C4F20247C9
:1046A0000CD561693A68702303EA1222914205D958
:1046B0003A6822F4E04242EA0121396001070CD550
:1046C00021693A68702303EA1212914205D93A68C7
:1046D00022F4E06242EA0111396041070AD5E1683B
:1046E0003A6802F07002914204D93A6822F07002EE
:1046F0001143396081070AD5A1683A6802F00F02B8
:10470000914204D93A6822F00F0211433960C00780
:1047100068D1206881070AD5A1683A6802F00F02C3
:10472000914204D23A6822F00F0211433960D8F85E
:10473000001001F00F01A9420CD9D8F8001021F0A7
:104740000F012943C8F80010D8F8001001F00F013C
:10475000A94255D141070AD5E1683A6802F07002D2
:10476000914204D23A6822F0700211433960010785
:104770000CD521693A68702303EA1212914205D2DE
:104780003A6822F4E06242EA01113960C0060CD5B1
:1047900060693968702202EA1121884205D23968BD
:1047A00021F4E04141EA0020386000F007F939685F
:1047B0004DF65C6201F00F01C0F60002525C40F25F
:1047C0001401C2F20001096840F2340320FA02F237
:1047D000C2F2000308461A6001B0BDE8F043FDF7DD
:1047E00093BA00BF606857F8201C01280CD002283B
:1047F00004D003285AD1890102D507E0890305D4E2
:10480000012001B0BDE8F0838905F9D557F8041CF3
:1048100021F00301084347F8040CFDF73BFA6168F7
:104820000646032941F2883939D0022929D00129C5
:1048300010D100BF57F8040C00F0180008283FF40E
:1048400068AFFDF727FA801B48454FF00300F1D908
:104850000DE000BF57F8040C10F0180F3FF459AFEB
:10486000FDF718FA801B48454FF00300F2D901B05C
:10487000BDE8F083FDF70EFA801B48454FF00300BA
:10488000F5D857F8040C00F018001028F2D140E7D2
:10489000FDF700FA801B48454FF00300E7D857F8B2
:1048A000040C00F018001828F2D132E78907A7D5C8
:1048B000ACE7000080B500F081F840F62041C4F27A
:1048C000024109684DF65C6201F00F01C0F600027A
:1048D000515C01F01F01C84040F23401C2F20001F6
:1048E000086080BD80B500F069F840F62041C4F250
:1048F00002410A684DF65C6302F00F02C0F6000345
:104900009A5C02F01F02D04040F23402C2F2000270
:10491000106009684DF66C62C1F30211C0F6000226
:10492000515C01F01F01C84080BD000080B500F05F
:1049300045F840F62041C4F202410A684DF65C6336
:1049400002F00F02C0F600039A5C02F01F02D04092
:1049500040F23402C2F20002106009684DF66C6247
:10496000C1F30221C0F60002515C01F01F01C840F2
:1049700080BD000080B500F021F840F62041C4F26F
:1049800002410A684DF65C6302F00F02C0F60003B4
:104990009A5C02F01F02D04040F23402C2F20002E0
:1049A000106009684DF66C62C1F30231C0F6000276
:1049B000515C01F01F01C84080BD000080B540F689
:1049C0000041C4F20241C86900F01800082802BF83
:1049D00040F60010C0F23D0080BDC86910F0180F0D
:1049E00034D0C86900F01800102802BF47F6400014
:1049F000C0F27D1080BDC86900F01800182849F287
:104A00000000C0F2D03066D1D1F828E08A6AC2F343
:104A1000052C8A6A8B6BBCF1000F04BF002080BD9F
:104A2000DB08D20603EAE2726FF35F3200EE102A6F
:104A30000EF00302B8EE400A032A15D0012A17D15E
:104A40000A68920618D49FED251A1DE008688006B2
:104A500049F20000C0F2D03058BF80BD0968C1F3F0
:104A6000C101C84080BD00BF9FED1B1A0CE000BF14
:104A70009FED1B1A08E000BF0A68C2F3C102D040D4
:104A800001EE100AB8EE411A02EE10CA486BB8EEF9
:104A9000422A6FF35F2081EE021A02EE100A9FEDA8
:104AA000113AB8EE422A20EE030A486B30EE020AB1
:104AB000B7EE002AC0F3462030EE020A013021EEA4
:104AC000000A01EE100AB8EE411A80EE010ABCEEAF
:104AD000C00A10EE100A80BD20BCBE4B0024744CEE
:104AE0000024744A00000039002804BF01207047E8
:104AF0002DE9F04381B040F6004740F6F049044606
:104B0000C4F20247C4F20249F86959F8C81C227875
:104B100000F01808D00601F003062AD5B8F1080FF6
:104B20001CD0B8F1180F08BF022E17D0E169386801
:104B3000002900F06D8140F480703860FDF7AAF81C
:104B4000054600BF386880050CD4FDF7A3F8401B6C
:104B500002284FF00300F5D958E200BFE0690028B1
:104B600000F0E480B869216A20F47C1040EA01403A
:104B7000B8612078C00719D0B8F1100F12D0B8F181
:104B8000180F08BF032E0DD061683868B1F5A02F4B
:104B900060DA002900F0B081B1F5803F00F0CE81ED
:104BA0009EE100BF6068002800F0C0802078800788
:104BB00077D5B8F1000F21D0E068B8F1180F08BF21
:104BC000012E55D03968002800F06681206921F057
:104BD000180108433860386840F001003860FDF77C
:104BE00059F805463868800754D4FDF753F8401B40
:104BF00002284FF00300F5D908E200BFE068002862
:104C000000F094803968206901F01801814231D0A8
:104C1000396821F0180108433860FFF7CFFE396A80
:104C20004DF65C6201F00F01C0F60002515C40F2EB
:104C3000340201F01F0120FA01F140F21400C2F227
:104C400000000068C2F200021160FDF75DF8002864
:104C50006CD10FE000F06A81B1F5A81F40F04081EF
:104C600040F480203860386840F4801064E100BF70
:104C700000285BD0FDF70EF8054600BF38688007B6
:104C800008D4FDF707F8401B0228F7D9032001B02C
:104C9000BDE8F0833869616920F4FE0040EA014014
:104CA00038612078000745D4207840075CD420780C
:104CB000800600F17F80A56AA5B3B8F1180F40F017
:104CC000C98059F8C81C59F8BC0C012D2ED0E26AD5
:104CD00001F00303934229D1C1F30521226B9142D4
:104CE00024D1626B01466FF35F21013A91421DD1DD
:104CF000A16BC0F3462201398A4217D1E16BC0F3A0
:104D0000064201398A4211D1216CC0F30660013993
:104D100088420BD159F8B80CE16CC0F3CC00884242
:104D200040F0E881002001B0BDE8F083012001B02F
:104D3000BDE8F083A169D9F80000002952D040F005
:104D40008060C9F80000FCF7A5FF0546D9F800000F
:104D50000001A9D4FCF79EFF401B0228F6D90320CE
:104D600001B0BDE8F08300BF4FF62446CFF6FF76D2
:104D7000B859C00712D1B85940F00100B851FCF73A
:104D800089FF0546B859C00708D1FCF783FF401BCF
:104D900002284FF00300F5D938E100BFA168D9F827
:104DA0000000042946DC002900F0EA80012900F017
:104DB0001781D5E0616A3868002900F07F8040F4EF
:104DC00080503860FCF766FF054600BF38688004F5
:104DD0003FF571AFFCF75EFF401B02284FF0030068
:104DE000F4D913E120F08060C9F80000FCF752FF0D
:104DF000054600BFD9F8000000017FF555AFFCF76C
:104E000049FF401B02284FF00300F3D9FEE000BF2A
:104E100020F480703860FCF73DFF05463868800557
:104E20007FF5A7AEFCF736FF401B02284FF00300CA
:104E3000F4D9EBE0052900F0C780852940F0908087
:104E400040F00400C9F80000D9F8000040F08000EC
:104E5000C2E000BF386820F080703860FCF71AFFAD
:104E6000022D05460CD100BF3868800140F1D28088
:104E7000FCF710FF401B02284FF00300F4D9C5E0F7
:104E80003868800140F12881FCF704FF401B0228AC
:104E90004FF00300F4D9B9E021F001003860FCF7CD
:104EA000F9FE0546386880077FF5FBAEFCF7F2FE99
:104EB000401B02284FF00300F4D9A7E020F48050F3
:104EC0003860FCF7E7FE0546386880047FF5F3AEEE
:104ED000FCF7E0FE401B02284FF00300F4D995E0F8
:104EE00020F480303860386820F4802038603868DA
:104EF00020F4801024E000BF20F48030386038684F
:104F000020F480103860386820F480203860FCF786
:104F1000C1FE0546386880037FF548AEFCF7BAFE4F
:104F2000401B64284FF00300F4D96FE040F4802068
:104F30003860386820F480103860386840F4803079
:104F40003860FCF7A7FE0546386880033FF52EAEB3
:104F5000FCF7A0FE401B64284FF00300F4D955E095
:104F600020F00100C9F80000D9F8000020F004008A
:104F7000C9F80000D9F8000020F0800032E000BF3E
:104F800020F00100C9F80000D9F8000020F08000EE
:104F9000C9F80000D9F8000020F00400C9F80000AA
:104FA000FCF778FE054641F2883600BFD9F80000CC
:104FB00080077FF57CAEFCF76DFE401BB0424FF0E2
:104FC0000300F3D922E000BF40F00400C9F800005C
:104FD000D9F8000020F08000C9F80000D9F80000DE
:104FE00040F00100C9F80000FCF754FE054641F20C
:104FF000883600BFD9F8000080073FF558AEFCF7AF
:1050000049FE401BB0424FF00300F3D901B0BDE8A8
:10501000F08300BF59F8C80C43F6037104F12C0368
:1050200088430ECB084340EA0220A16B49F8C80C24
:105030004FF47E4202EB4121E26B581E4FF4FE0317
:1050400089B203EB02426FF35F20084402F4FE01D1
:10505000226C4FF0FE4303EB0262084402F0FE4173
:10506000084449F8BC0C59F8C80C20F0100049F865
:10507000C80CE06CC00049F8B80C59F8C80C40F0F6
:10508000100049F8C80C59F8C80C616C20F00C00ED
:10509000084349F8C80C59F8C80CA16C20F020004E
:1050A000084349F8C80C59F8C80C40F4803049F856
:1050B000C80C386840F080703860FCF7EBFD04469F
:1050C000386880013FF52EAEFCF7E4FD001B022896
:1050D0004FF00300F4D999E759F8C80C4FF6FC716A
:1050E000CFF6F871084049F8C80C002001B0BDE8BF
:1050F000F08300BF59F8C80C20F0100049F8C80C24
:10510000FCF7C8FD0546FCF7C5FDA842FBD0E06CE6
:10511000C00049F8B80C59F8C80C40F0100049F824
:10512000C80C002001B0BDE8F0830000042888BF4F
:105130007047DFE800F0031B13352D004EF210001E
:10514000CEF20000016821F00401016040F6E44065
:10515000C4F20240016821F00C0120E04EF2100080
:10516000CEF200000168022206E000BF4EF21000FD
:10517000CEF200000168012221F00401016040F636
:10518000E440C4F20240016862F3830107E000BF1B
:105190004EF21000CEF20000016841F004010160FF
:1051A00070470000411E0020B0EB116F1CBF0120B2
:1051B00070474EF21002CEF200025160906011680A
:1051C00041F00301116070474EF21000CEF2000072
:1051D0000068400744BF0420704740F6E440C4F232
:1051E0000240006800F00C01081FB0FA80F040098E
:1051F000082908BF0220704790F83C20012A4FF090
:10520000020200F0C08010B580F83D20026842F62E
:10521000FF33D2F804E0D2F808C0C5F201039A4285
:105220000CDC42F60043C4F201039A4212D043F26E
:105230000043C4F201039A420CD010E043F2004351
:10524000C5F201039A4205D042F60043C5F20103BC
:105250009A4204D14C682EF4700344EA030E4FF6D0
:105260008F73CFF6FF530C6803EA0E032343B2F1AA
:10527000A04F536014DA41F2FF73C4F200039A4264
:1052800022DC40F2FF73C4F200039A423EDCB2F12A
:10529000804F6BD040F20043C4F2000364E000BFD3
:1052A00041F2FF73C5F200039A421FDC40F2FF7324
:1052B000C5F200039A4235DCB2F1A04F56D040F25D
:1052C0000043C5F200034FE043F2FF33C4F2010391
:1052D0009A4233DC41F60003C4F200039A4245D0FF
:1052E00042F60043C4F201033EE000BF43F2FF3345
:1052F000C5F201039A422DDC41F60003C5F200031A
:105300009A4233D042F600432CE000BF40F600033F
:10531000C4F200039A4229D040F60043C4F20003CD
:1053200022E000BF40F60003C5F200039A421DD000
:1053300040F60043C5F2000316E000BF43F200430D
:10534000C4F201039A4211D044F20003C4F20103F3
:105350000AE000BF44F20003C5F201039A4205D0FF
:1053600043F20043C5F201039A4204D189682CF04C
:105370008003194391600121002280F83D1080F8DC
:105380003C20BDE81040104670470000002804BFD4
:105390000120704710B5044690F83D0028B9002060
:1053A00084F83C00204600F023F8022084F83D00F9
:1053B0002068211D00F038FA012084F8480084F8A4
:1053C0003E0084F83F0084F8400084F8410084F8EF
:1053D000420084F8430084F8440084F8450084F8CF
:1053E000460084F8470084F83D00002010BD00000E
:1053F000006841F20001C4F20001884218BF704702
:1054000081B040F69C40C4F20240016841F01001B6
:105410000160006800F010000090009801B0704733
:1054200010B5D8B10446D0F8880028B9002084F817
:105430008400204600F026F82420C4F88800206864
:10544000A16A0268002922F0010202601CBF204606
:1054500000F008FB204600F02FFC08B1012010BD31
:105460002168486820F490404860886820F02A004D
:105470008860086840F0010220460A60BDE81040DC
:1054800000F064BB70470000FEE7000040F230020D
:10549000C2F200021268D1E9003CC0E900234B8946
:1054A0000C22C0E904320A898989C0F808C08161E8
:1054B0004FF40041C1610021C2604162FFF7B0BFFB
:1054C000FEE70000FEE700007047000070B540F600
:1054D0002C46C4F2024656F82C1C044621F080608B
:1054E00046F82C0CFCF7D6FB054600BF56F82C0CF2
:1054F000000105D5FCF7CEFB401B0228F6D958E089
:10550000306843F60371884394E80E00084340EA8C
:105510000220E16830604FF47E4202EB41212269B3
:10552000581E4FF4FE0389B203EB02426FF35F2073
:10553000084402F4FE0162694FF0FE4303EB02628D
:10554000084402F0FE41084430613068A16920F04F
:105550000C00084330603068E16920F02000084307
:105560003060606A31680843306030684FF6F87127
:1055700020F0100030607069226A884340EAC2005F
:105580007061306840F01000306056F82C0C40F02C
:10559000806046F82C0CFCF77DFB044656F82C0C7A
:1055A000000144BF002070BDFCF774FB001B032802
:1055B000F4D3032070BD000070B540F63046C4F24D
:1055C000024656F8301C044621F0805046F8300C54
:1055D000FCF760FB054600BF56F8300C800005D58F
:1055E000FCF758FB401B0228F6D958E0306843F618
:1055F0000371884394E80E00084340EA0220E16802
:1056000030604FF47E4202EB41212269581E4FF474
:10561000FE0389B203EB02426FF35F20084402F4F9
:10562000FE0162694FF0FE4303EB0262084402F0A0
:10563000FE41084470613068A16920F00C00084305
:1056400030603068E16920F0200008433060606A13
:1056500031680843306030684FF6F87120F0100070
:105660003060B069226A884340EAC200B0613068A5
:1056700040F01000306056F8300C40F0805046F892
:10568000300CFCF707FB044656F8300C800044BF92
:10569000002070BDFCF7FEFA001B0328F4D30320A2
:1056A00070BD000070470000FCF7FABA10B59CB05E
:1056B00040F6140408A85021C4F20244FAF72EFF61
:1056C0000020CDE90600CDE90400CDE9020054F840
:1056D000040C40F0300044F8040C54F8040C00F0C2
:1056E0003000019001982068000709D42068000765
:1056F0005CBF20685FEA007002D420680007F2D522
:10570000302008904FF4805011904FF480700F902B
:10571000202001211090022014917D21CDE912005A
:10572000CDE91510CDE9170008201990002408A82C
:10573000CDE91A44FFF7D8F910B172B6FEE700BF01
:105740001F2002900320CDE9030402A80521CDE922
:1057500005440794FEF77EFF10B172B6FEE700BF66
:1057600042F20000C4F202000168022262F3051155
:1057700001601CB010BD00004EF6885CCEF2000C3B
:10578000DCF80010012241F47001CCF8001040F662
:105790000041C4F202410A600022CA610A620B6839
:1057A0004EF6E320CEF6E2201840086040F280205A
:1057B000C0F201108A62CA620A6348638A63C863DE
:1057C0000A6448648A64086820F4802008600A65D6
:1057D0004FF0006042F21C01C4F202014CF8800C50
:1057E00051F8040C420F062A05D800F06040B0F1D1
:1057F000404F18BF70470868C0070BD042F63B20E7
:10580000C0F6190041F8100C46F67F60C4F65D4002
:1058100041F8100C086840F002000860086840F089
:1058200001000860704700000268B0F1A04F13DA71
:1058300040F6FF33C4F20003984221DCB0F1804F00
:1058400042D040F20043C4F2000398423CD040F6FC
:105850000003C4F2000335E040F6FF33C5F2000355
:1058600098421FDCB0F1A04F2ED040F20043C5F2A9
:105870000003984228D040F60003C5F2000321E05F
:1058800040F60043C4F2000398421DD042F60043A4
:10589000C4F20103984217D043F20043C4F201035B
:1058A00010E000BF40F60043C5F2000398420BD061
:1058B00043F20043C5F20103984205D042F600438B
:1058C000C5F20103984203D14B6822F070021A43DB
:1058D000B0F1A04F14DA41F2FF73C4F20003984212
:1058E00022DC40F2FF73C4F2000398423EDCB0F1C8
:1058F000804F6BD040F20043C4F2000364E000BF6D
:1059000041F2FF73C5F2000398421FDC40F2FF73BF
:10591000C5F20003984235DCB0F1A04F56D040F2FA
:105920000043C5F200034FE043F2FF33C4F201032A
:10593000984233DC41F60003C4F20003984245D09C
:1059400042F60043C4F201033EE000BF43F2FF33DE
:10595000C5F2010398422DDC41F60003C5F20003B5
:10596000984233D042F600432CE000BF40F60003DB
:10597000C4F20003984229D040F60043C4F2000369
:1059800022E000BF40F60003C5F2000398421DD09C
:1059900040F60043C5F2000316E000BF43F20043A7
:1059A000C4F20103984211D044F20003C4F201038F
:1059B0000AE000BF44F20003C5F20103984205D09B
:1059C00043F20043C5F20103984203D1CB6822F4AD
:1059D00040721A4380B54B6922F0800E8A6843EA10
:1059E0000E03D1F800C00360C26242F6FF32C5F276
:1059F00001029042C0F828C0BDE8804012DC42F6A7
:105A00000042C4F2010290421ED043F20042C4F2AE
:105A10000102904218D044F20002C4F20102904206
:105A200012D013E042F60042C5F2010290420BD0C0
:105A300044F20002C5F20102904205D043F2004256
:105A4000C5F20102904201D109690163012141615E
:105A50000169C90708BF7047016921F001010161AF
:105A600070470000816A0A070CD4CA0715D18A075B
:105A70001ED44A0727D4CA0630D48A0639D44A0627
:105A800042D457E00268D0F838C0536823F400438A
:105A900043EA0C035360CA07E9D00268D0F82CC06F
:105AA000536823F4003343EA0C0353608A07E0D5BC
:105AB0000268D0F830C0536823F4803343EA0C0303
:105AC00053604A07D7D50268D0F834C0536823F42E
:105AD000802343EA0C035360CA06CED50268D0F88F
