:020000040800F2
:10000000400D0020210300082121000819210008CB
:100010001D2100086D05000849240008330300086D
:1000200000000000000000000000000001230008A4
:1000300071050008000000002521000805230008C4
:100040003D0300083D0300083D0300083D03000890
:100050003D0300083D0300083D0300083D03000880
:100060003D0300083D0300083D0300083D03000870
:100070003D0300083D0300083D0300083D03000860
:100080003D0300083D0300083D0300083D03000850
:100090003D0300083D0300083D0300083D03000840
:1000A000750500083D0300083D0300083D030008F6
:1000B0003D0300083D0300083D0300083D03000820
:1000C0003D0300083D0300083D0300083D03000810
:1000D0003D0300083D0300083D0300083D03000800
:1000E0003D0300083D0300083D0300083D030008F0
:1000F0003D0300083D0300083D0300083D030008E0
:100100003D0300083D0300083D0300083D030008CF
:100110003D0300083D0300083D0300083D030008BF
:100120003D0300083D0300083D0300083D030008AF
:100130003D0300083D0300083D0300083D0300089F
:100140003D0300083D0300083D0300083D0300088F
:100150003D0300083D0300083D0300083D0300087F
:100160000000000000000000D92300083D03000843
:100170003D0300083D0300083D0300083D0300085F
:100180003D0300083D0300083D0300080000000097
:10019000000000003D030008000000000000000017
:1001A00000000000000000003D0300083D030008BF
:1001B0003D0300083D0300083D0300083D0300081F
:1001C0003D0300083D03000800000000000000009F
:1001D0000000000000000000000000003D030008D7
:1001E0003D0300083D03000800000000000000007F
:1001F0003D0300083D0300083D0300080000000027
:10020000000000003D0300083D0300083D03000816
:100210003D0300083D0300083D0300083D030008BE
:100220003D03000800000000000000003D0300083E
:100230003D03000800000000000000000000000076
:100240000000000000000000000000003D03000866
:100250003D03000800F002F800F052F814A696E8FA
:10026000000CB244B344DA4501D100F049F8BAE8D1
:100270000F000FA696E83000A5EB040504EB060777
:10028000AAEB0704A7F101074FEA15154FEA34144A
:10029000A4F10104AC4201D300F032F813F0010FD5
:1002A00018BFFB1A43F0010300F001F8DBE7184721
:1002B000E45F000004600000103A24BF78C878C1F1
:1002C000FAD8520724BF30C830C144BF04680C605C
:1002D000704700007047000000230024002500261E
:1002E000103A28BF78C1FBD8520728BF30C148BF99
:1002F0000B6070471FB505F043FF1FBD10B510BD63
:1003000000F0F0F81146FFF7F5FF03F0C1F900F037
:100310000EF903B4FFF7F2FF03BC00F015F900007B
:100320000A4880470A480047FEE7FEE7FEE7FEE787
:10033000FEE7FEE7FEE7FEE7FEE7FEE7FEE700007A
:1003400004480549054A064B704700000923000888
:100350005502000840070020400D00204009002001
:100360004009002010B5431C02E010F8011B71B1D8
:100370008107FAD14FF0013202C88C1A8C4314EA7B
:10038000C211F9D0C01A0A0603D0C01E10BDC01A8F
:1003900010BD0A0401D0801E10BD0902FCD0401E11
:1003A00010BD032A40F2308010F0030C00F01580DD
:1003B00011F8013BBCF1020F624498BF11F801CB68
:1003C00000F8013B38BF11F8013BA2F1040298BFCD
:1003D00000F801CB38BF00F8013B11F0030300F037
:1003E0004F80083AC0F0088051F8043B083A51F8B1
:1003F00004CBA0E80810F5E7121D5CBF51F8043BE0
:1004000040F8043BAFF30080D20724BF11F8013B52
:1004100011F801CB48BF11F8012B24BF00F8013BB4
:1004200000F801CB48BF00F8012B70474FF00002E5
:1004300000B5134694469646203922BFA0E80C50DA
:10044000A0E80C50B1F12001BFF4F7AF090728BFB5
:10045000A0E80C5048BF0CC05DF804EB890028BF31
:1004600040F8042B08BF704748BF20F8022B11F05A
:10047000804F18BF00F8012B7047704770477047D6
:1004800010B5203AC0F00B80B1E81850A0E8185021
:10049000B1E81850A0E81850203ABFF4F5AF5FEA71
:1004A000027C24BFB1E81850A0E8185044BF18C916
:1004B00018C0BDE810405FEA827C24BF51F8043BBD
:1004C00040F8043B08BF7047D20728BF31F8023B11
:1004D00048BF11F8012B28BF20F8023B48BF00F8A5
:1004E000012B7047754600F02BF8AE4605006946B3
:1004F000534620F00700854618B020B5FFF720FFCF
:10050000BDE820404FF000064FF000074FF0000814
:100510004FF0000BAC46ACE8C009ACE8C009ACE851
:10052000C009ACE8C00921F007018D46704710B53D
:100530000446AFF300802046BDE81040FFF7E9BE57
:10054000004870474800002001491820ABBEFEE774
:10055000260002007047000000EB400040F24831E6
:10056000C2F2000101EB800000F00CB8FEE70000D1
:10057000704700000020FFF7EFBF000072B600BF19
:10058000FEE70000F0B581B004460068082202EAE8
:10059000503542F20C07C4F2024700F01F0101205F
:1005A00057F8252000FA01F6164205D047F82560D5
:1005B0006068002818BF8047381D50F82510314268
:1005C00008D040F82560A06820B101B0BDE8F04037
:1005D000004700BF01B0F0BD0A68002A08BF70479D
:1005E0002DE9F04F83B000F12003019347F67F73AC
:1005F000C0F22F0303EA90234FF0000A4FF0010BE3
:1006000000274FF0000C002500930BE00A6801352D
:1006100032FA05F30CF1040C07F102070AF1080A9B
:1006200000F09A800BFA05F912EA0902EED0D1F82F
:100630000480029248F01006122E1BD16FF00302C4
:1006400002EA5506DDF804B00CF01C025BF8064027
:10065000D1F810800F2303FA02FE08F00F0324EAFA
:100660000E0403FA02F222434BF80620D1F804806C
:100670004FF0010B02680323BB4008F0030EDC437C
:100680009A430EFA07F31A43B8F1120F02605BD8CF
:100690000BFA08F212F0061F56D08368D1E9022641
:1006A0002340BE403343836043684FEA181623EA71
:1006B0000903AE4033434360C368BA4023401A4342
:1006C000C260029C5FEAC802A0D542F2000E25F08B
:1006D0000302C4F2024E7244D2F860800AF0180697
:1006E0000F23B34028EA0308009B03FA06F648EA02
:1006F00006031366DEF800804B6848EA0406DA0257
:1007000058BF28EA0406CEF80060DEF804809A029A
:1007100048EA040658BF28EA0406CEF80460DEF86A
:1007200084809A0348EA040658BF28EA0406CEF8F3
:100730008460DEF88020DB0342EA040658BF22EA28
:100740000406CEF8806061E78A68BEF1030F08BF37
:10075000012AB1D1B5E700BF03B0BDE8F04F704743
:100760000069084018BF0120704700001823002AC4
:1007700008BF2823C150704740F23C60C2F200001D
:100780000068704740F2100040F23C61C2F2000085
:10079000C2F2000100780A68104408607047000047
:1007A00080B5032000F0B6F801F098F840F620413B
:1007B000C4F20241096846F29C1201F00F01C0F632
:1007C0000002515CC84040F23001C2F200010860F2
:1007D000042001F03BFC0F2000F008F800281CBFAB
:1007E000012080BD00F056F8002080BDB0B540F279
:1007F0001005C2F200052978E1B304464EF210005C
:10080000CEF200000068400710D401F06DFC022811
:1008100024D001281AD078BB40F23000C2F2000088
:10082000006829784FF4FA5207E000BF40F2300028
:10083000C2F2000000684FF47A72B2FBF1F1B0FB33
:10084000F1F001F03FFCA8B91BE000BF28784FF49D
:100850007A71B1FBF0F04FF4FA4106E028784FF4DA
:100860007A71B1FBF0F04FF40041B1FBF0F001F010
:1008700029FC30B10120B0BD002001F023FC00288C
:10088000F8D14FF0FF302146002200F017F8002089
:100890006C60B0BD70470000002848BF704700F092
:1008A0001F010122C0F34A1002FA01F14EF20012B8
:1008B000CEF2000242F820107047000010B54EF64C
:1008C0000C5CCEF2000CDCF80030C3F3022E8EF08C
:1008D0000704042C28BF0424BEF103034FF0FF3E9D
:1008E00038BF00230EFA04F4A14399400EFA03F333
:1008F0009A43114300F00F0200F160430901043AEA
:1009000003F564436244002848BF02F10C031970E8
:1009100010BD00004EF60C51CEF200010A684FF6F1
:10092000FF031A4060F30A2242F0806040F0FD703D
:100930000860704701220168C0F8D822002280F8C0
:10094000CC22486D40F001004865486D40F002023D
:1009500000204A6570470000002804BF012070474E
:10096000F0B581B0044690F8950228B9002084F8CB
:100970009402204600F01CF9032084F895022068B8
:1009800001F046FD94E80F00267C009601F014FD6E
:10099000002840F0F4802068002101F043FD002889
:1009A00040F0ED8094F804E0BEF1000F00F0E0802C
:1009B0000EF0030CBEF1040F4FF0000238D30EF01E
:1009C000FC03A4F1A0000321012500BFCE1E80F886
:1009D000B4608E1E80F8DC604E1E80F8046180F8E2
:1009E0002C110E1D013180F8B55080F8B720C0E9F8
:1009F0003122C0F8CC2080F8DD5080F8DF20C0E93B
:100A00003B22C0F8F42080F8055180F80721C0E9A6
:100A10004522C0F81C2180F82D5180F82F21C0E913
:100A20004F22C0F84421A03099423146CED1F21E67
:100A3000BCF1000F2ED002EB820104F1140000EB98
:100A4000C105012300F831200021BCF1010F6B70BA
:100A5000E970C5E90411A9611CD0551C05EB850698
:100A6000BCF1020F00EBC60700F836507B70F9703E
:100A7000C7E90411B9610DD0911C01EB8102012578
:100A800000EBC20300F8321000205D70D870C3E99B
:100A900004009861BEF1000F6AD0BEF1040F4FF060
:100AA000000235D30EF0FC0003212346CF1E83F84D
:100AB00054718F1E83F87C714F1E83F8CC110D1D6D
:100AC000013183F8552183F85721C3E95922C3F82E
:100AD0006C2183F87D2183F87F21C3E96322C3F869
:100AE000942183F8A52183F8A47183F8A721C3E991
:100AF0006D22C3F8BC2183F8CD2183F8CF21C3E94F
:100B00007722C3F8E421A03381422946CED1EA1EE0
:100B1000BCF1000F2CD002EB820304F5AA7000EBAD
:100B2000C3070021BCF1010F797000F83320F97080
:100B3000C7E90411B9611BD0531C03EB8307BCF157
:100B4000020F00EBC70600F837307170F170C6E98C
:100B50000411B1610CD0911C01EB8102002700EB64
:100B6000C20300F832105F70DF70C3E904779F6141
:100B700094E80F00277C009701F03AFC30B1022086
:100B800084F89502012001B0F0BD00BF0020607420
:100B9000012084F89502207B012804BF2046FFF73E
:100BA000C9FE206801F01CFC002001B0F0BD00006F
:100BB00010B5B6B0044602A80830C821FFF736FCCD
:100BC000206846F20001C4F20101884202D036B02A
:100BD00010BD00BF10200390002002903020339001
:100BE00002A800F027F8002818BFFFF7C7FC00F0A4
:100BF00017F840F6A440C4F202400168002241F018
:100C0000807101600068002100F0807001900198FF
:100C10004A20FFF753FE4A20FFF73EFE36B010BDD4
:100C200040F63800C4F20240016841F000710160F2
:100C3000704700002DE9F0470446006840F6284858
:100C4000C101C4F2024807D5D8F8C010A26D21F046
:100C500040411143C8F8C010C00712D0E06D05280C
:100C600000F25482DFE810F00600B404EA01060046
:100C700006000600D8F8B01021F007010843C8F8B4
:100C8000B00000252078800702D428461BE000BF72
:100C9000206E4FEAF001052900F23A822846DFE88B
:100CA00011F00700A304D70107000700070000BFE9
:100CB000064648B9D8F8B000216E20F03800084345
:100CC000C8F8B00000202E462178490719D5616E7A
:100CD0004FEAB111052900F22382DFE811F0070085
:100CE0008B04BF0107000700070000BF054648B995
:100CF000D8F8B000616E20F4E0700843C8F8B00086
:100D0000002035462178090719D5A16E4FEA7121D7
:100D1000052900F20D82DFE811F007007304A70136
:100D200007000700070000BF064648B9D8F8B00022
:100D3000A16E20F460600843C8F8B00000202E4681
:100D40002178C90619D5E16E4FEA3131052900F243
:100D5000F781DFE811F007005B048F01070007004F
:100D6000070000BF054648B9D8F8B000E16E20F48E
:100D7000E0400843C8F8B0000020354621788906D5
:100D800019D5216F4FEAF131052900F2E181DFE841
:100D900011F007004304770107000700070000BFB8
:100DA000064648B9D8F8B000216F20F460300843F7
:100DB000C8F8B00000202E466178C90619D5616FC9
:100DC0004FEA3161052900F2CB81DFE811F007001D
:100DD0002B045F0107000700070000BF054648B964
:100DE000D8F8B800616F20F0E0600843C8F8B80098
:100DF00000203546617889061AD5A16F6FF001028F
:100E000002EB3142022A08D34FEA314129B10129CC
:100E10002ED104F1300001F0FDF9064648B9D8F8AA
:100E2000BC00A16F20F440300843C8F8BC0000208B
:100E30002E466178490620D5E16F6FF0010202EB82
:100E4000B142022A08D34FEAB14129B1012937D171
:100E500004F1300001F0DEF9054678B9D8F8BC009D
:100E6000E16F20F440200843C8F8BC00002004E0F3
:100E70000120012661784906DED4354661780906ED
:100E800023D5D4F880106FF0010202EB3152022A10
:100E900008D34FEA315129B1012939D104F1300089
:100EA00001F0B8F9064688B9D8F8BC00D4F880102B
:100EB00020F440100843C8F8BC00002005E000BF43
:100EC0000120012561780906DBD42E46A178C907E7
:100ED00023D0D4F88410002918BFB1F1007F0DD1C0
:100EE0000746D8B9D8F8BC00D4F8841020F0407078
:100EF0000843C8F8BC0000200FE000BFB1F1807FBC
:100F000030D104F1300001F085F9074630B9E9E746
:100F100001200126A178C907DBD137466179C906CE
:100F200025D5D4F88810002918BFB1F1006F0DD174
:100F30000546E8B9D8F8BC00D4F8881020F0406025
:100F40000843C8F8BC00002011E000BFB1F1806F79
:100F500040F0708004F1300001F05CF9054638B9CA
:100F6000E8E700BF012001276179C906D9D43D46D1
:100F7000D4E9001240F61C47C4F20247120508D516
:100F80003A6822F400423A60D4F8C8203B681A4319
:100F90003A6089031AD5D4F88C104FEA312105291B
:100FA00000F2E680DFE811F0060044037800060056
:100FB00006000600064650B9D8F8B400D4F88C10E4
:100FC00020F4E0600843C8F8B40000202E46A17861
:100FD00049071BD5D4F890104FEA3131052900F2AA
:100FE000CF80DFE811F007002B035F000700070048
:100FF000070000BF054650B9D8F8B400D4F89010E7
:1010000020F4E0400843C8F8B40000203546A17839
:1010100089065ED5D4F8A010052900F2B98002290E
:1010200046D0002802464AD0D4E900139B0555D487
:10103000B4E000BF012001259AE700BF04F13000B1
:1010400001F0E8F8054600287FF41CAEC8E200BFB6
:1010500004F1300001F0DEF82AE600BF04F13000B0
:1010600001F0D8F842E600BF04F1300001F0D2F8F8
:101070005AE600BF04F1300001F0CCF872E600BF80
:1010800004F1300001F0C6F88AE600BF04F1300038
:1010900001F0C0F8A2E600BF04F1300001F0BAF898
:1010A00088E700BF04F1300001F0B4F8A2E700BF08
:1010B00004F1080001F038F800280246B4D1D8F84D
:1010C000C000D4F8A01020F007000843C8F8C00002
:1010D00000202A46D4E900139B055FD5D4F8A4303C
:1010E00043F00806082E0BD1814660B9D8F8C0003D
:1010F00020F008001843C8F8C00000204EE000BFF0
:1011000001204FF0010989014BD4A6E00125B9E582
:1011100001200126217849073FF5D9ADF1E500BF4F
:1011200001200125217809073FF5EFAD07E600BF53
:10113000012001262178C9063FF505AE1DE600BF56
:1011400001200125217889063FF51BAE33E600BF5B
:10115000012001266178C9063FF531AE49E600BF9E
:1011600001200125617889063FF547AE60E600BFA2
:1011700001200126A17849073FF52CAF46E700BFC3
:1011800001200125A17889063FF544AFA1E700BF02
:1011900001200122D4E900139B059FD491468901C7
:1011A0005BD54FF60846CFF6FF768246B85940F039
:1011B0000100B851FFF7E0FA054600BFB859C00773
:1011C00008D1FFF7D9FA401B0228F7D903200321E1
:1011D00044E000BF5046BAF1000F51463ED1D8F866
:1011E000C80010F4407018D0D4F8BC10884211D058
:1011F000D8F8C800D8F8C81020F4407041F4803105
:10120000C8F8C810D8F8C81021F48031C8F8C81040
:10121000C8F8C800C00740F01D82D4F8BC00396887
:101220004FF6CF7300F4407221F47C51C0F2FF03FB
:1012300003EA1013B2F5407F08BF19433960D8F8AC
:10124000C8106FF31F3021F44071C8F8C810D8F8E7
:10125000C8100843C8F8C800002049462268530156
:101260001CD5D4F898306FF0010707EB3317022F25
:101270000AD34FEA33173FB1012F17D1D8F80070C6
:1012800047F40037C8F80070054640B9D8F8C000E8
:1012900020F030001843C8F8C00000200D4651026D
:1012A00008D42E46E178090714D451E00120012525
:1012B0005102F6D5D4F89C10402921D091BBD8F822
:1012C000001041F40031C8F800100646F8B1E1788A
:1012D00009073DD5D4F8AC10042900F25F81DFE89E
:1012E00011F005003F0127002B002B00D8F800105B
:1012F00041F40031C8F80010054650BB1EE000BFA5
:1013000004F1080000F010FF00280646DFD1D8F8ED
:10131000BC00D4F89C1020F040000843C8F8BC0082
:101320000020BEE701200126E1780907D2D40FE0B2
:1013300004F1300000F06EFF054650B9D8F8B8004F
:10134000D4F8AC1020F007000843C8F8B80000201B
:101350003546E178C90627D5D4F8B0104FEAF10137
:10136000042900F21F81DFE811F0050005010F00DC
:1013700013001300D8F8001041F40031C8F8001031
:10138000064690B906E000BF04F1300000F042FFCD
:10139000064650B9D8F8B800D4F8B01020F038009C
:1013A0000843C8F8B80000202E46E178890627D502
:1013B000D4F8B4104FEAB111042900F2F780DFE845
:1013C00011F00500E3000F0013001300D8F800101F
:1013D00041F40031C8F80010054690B906E000BF9E
:1013E00004F1300000F016FF054650B9D8F8B800F7
:1013F000D4F8B41020F4E0700843C8F8B800002016
:101400003546E17849061BD5D4F8B8104FEA71216A
:10141000052900F2D580DFE811F007001701CD00A3
:1014200007000700070000BF064650B9D8F8B8000B
:10143000D4F8B81020F460600843C8F8B800002061
:101440002E46217989071BD5D4F8A810032900F26C
:101450008380DFE801F00903770900BFD8F80010A6
:1014600041F40031C8F80010054650B9D8F8BC0066
:10147000D4F8A81020F003000843C8F8BC000020EE
:1014800035462179490721D5D4F8941059B1B1F5E1
:10149000007F0BD0B1F5807F3CD1D8F8001041F42B
:1014A0000031C8F80010064688B905E004F10800CC
:1014B00000F03AFE064650B9D8F8C000D4F89410AF
:1014C00020F440700843C8F8C00000202E4621795F
:1014D000C90624D5D4F8C410302909D0202909D050
:1014E00010292DD1D8F8001041F40031C8F80010AF
:1014F000B0B904E004F1300000F08CFE80B9D8F8F7
:10150000BC00D4F8C41020F030000843C8F8BC0078
:1015100005E000BF012001262179C906DAD4304652
:101520002179090758BFBDE8F087D8F8C010D4F872
:10153000C02021F0C0011143C8F8C010BDE8F087F9
:101540000120EDE704F1080000F0EEFD002805465B
:101550007FF497AF8AE700BF0120012591E700BF24
:1015600004F1080000F0E0FD002805467FF4F1AE2C
:10157000E4E600BF04F1080000F0D6FD00280646AE
:101580007FF413AF06E700BF04F1080000F0CCFDC4
:10159000002805467FF435AF28E700BF012001256C
:1015A000D7E600BF01200126FFE600BF012001258C
:1015B00027E700BF04F1300000F02CFE34E700BF45
:1015C00001200126217989073FF53EAF58E700BF8A
:1015D00004F1080000F0A8FD054600287FF452AB96
:1015E000E06DFFF747BB00BF04F1080000F09CFD71
:1015F000FFF75EBB04F1080000F096FDFFF776BB35
:1016000004F1080000F090FDFFF78EBB04F1080024
:1016100000F08AFDFFF7A6BB04F1080000F084FD8E
:10162000FFF7BEBB04F1080000F07EFDFFF7D6BB5C
:1016300004F1080000F078FDFFF7BCBC04F10800DD
:1016400000F072FDD6E400BF04F1080000F06CFD6C
:10165000EAE600BFFFF790F8054641F2883600BF82
:10166000D8F8C80080073FF5D8ADFFF785F8411BD3
:101670000320B1424FF00301F2D9EFE52DE9F04329
:1016800081B0002800F0D08042F20008C4F20208C5
:101690000446D8F800000D4600F00F0088420DD235
:1016A000D8F8000020F00F002843C8F80000D8F850
:1016B000000000F00F00A84240F0B680206840F61D
:1016C0002047C106C4F202470CD561693A6870230D
:1016D00003EA1222914205D93A6822F4E04242EA32
:1016E0000121396001070CD521693A68702303EAAA
:1016F0001212914205D93A6822F4E06242EA0111DD
:10170000396041070AD5E1683A6802F070029142F7
:1017100004D93A6822F070021143396081070AD572
:10172000A1683A6802F00F02914204D93A6822F0A7
:101730000F0211433960C00768D1206881070AD5BC
:10174000A1683A6802F00F02914204D23A6822F08E
:101750000F0211433960D8F8001001F00F01A942BF
:101760000CD9D8F8001021F00F012943C8F8001057
:10177000D8F8001001F00F01A94255D141070AD550
:10178000E1683A6802F07002914204D23A6822F0AD
:1017900070021143396001070CD521693A68702342
:1017A00003EA1212914205D23A6822F4E06242EA58
:1017B00001113960C0060CD560693968702202EAEF
:1017C0001121884205D2396821F4E04141EA002024
:1017D000386000F083F8396846F29C1201F00F017E
:1017E000C0F60002525C40F21401C2F20001096826
:1017F00040F2300320FA02F2C2F2000308461A60F7
:1018000001B0BDE8F043FEF7F1BF00BF606857F8D4
:10181000201C01280CD0022804D003285AD18901A9
:1018200002D507E0890305D4012001B0BDE8F083AB
:101830008905F9D557F8041C21F00301084347F83E
:10184000040CFEF799FF61680646032941F28839C6
:1018500039D0022929D0012910D100BF57F8040C32
:1018600000F0180008283FF468AFFEF785FF801BE2
:1018700048454FF00300F1D90DE000BF57F8040CC4
:1018800010F0180F3FF459AFFEF776FF801B484564
:101890004FF00300F2D901B0BDE8F083FEF76CFF12
:1018A000801B48454FF00300F5D857F8040C00F0B2
:1018B00018001028F2D140E7FEF75EFF801B484574
:1018C0004FF00300E7D857F8040C00F01800182870
:1018D000F2D132E78907A7D5ACE7000080B540F622
:1018E0000041C4F20241C86900F01800082802BF94
:1018F00040F60010C0F23D0080BDC86910F0180F1E
:1019000034D0C86900F01800102802BF47F6400024
:10191000C0F27D1080BDC86900F01800182849F297
:101920000000C0F2D03066D1D1F828E08A6AC2F354
:10193000052C8A6A8B6BBCF1000F04BF002080BDB0
:10194000DB08D20603EAE2726FF35F3200EE102A80
:101950000EF00302B8EE400A032A15D0012A17D16F
:101960000A68920618D49FED251A1DE008688006C3
:1019700049F20000C0F2D03058BF80BD0968C1F301
:10198000C101C84080BD00BF9FED1B1A0CE000BF25
:101990009FED1B1A08E000BF0A68C2F3C102D040E5
:1019A00001EE100AB8EE411A02EE10CA486BB8EE0A
:1019B000422A6FF35F2081EE021A02EE100A9FEDB9
:1019C000113AB8EE422A20EE030A486B30EE020AC2
:1019D000B7EE002AC0F3462030EE020A013021EEB5
:1019E000000A01EE100AB8EE411A80EE010ABCEEC0
:1019F000C00A10EE100A80BD20BCBE4B0024744CFF
:101A00000024744A00000039002804BF01207047F8
:101A10002DE9F04381B040F6004740F6F049044616
:101A2000C4F20247C4F20249F86959F8C81C227886
:101A300000F01808D00601F003062AD5B8F1080F07
:101A40001CD0B8F1180F08BF022E17D0E169386812
:101A5000002900F06D8140F480703860FEF78CFE44
:101A6000054600BF386880050CD4FEF785FE401B94
:101A700002284FF00300F5D958E200BFE0690028C2
:101A800000F0E480B869216A20F47C1040EA01404B
:101A9000B8612078C00719D0B8F1100F12D0B8F192
:101AA000180F08BF032E0DD061683868B1F5A02F5C
:101AB00060DA002900F0B081B1F5803F00F0CE81FE
:101AC0009EE100BF6068002800F0C0802078800799
:101AD00077D5B8F1000F21D0E068B8F1180F08BF32
:101AE000012E55D03968002800F06681206921F068
:101AF000180108433860386840F001003860FEF78C
:101B00003BFE05463868800754D4FEF735FE401B7F
:101B100002284FF00300F5D908E200BFE068002872
:101B200000F094803968206901F01801814231D0B9
:101B3000396821F0180108433860FFF7CFFE396A91
:101B400046F29C1201F00F01C0F60002515C40F217
:101B5000300201F01F0120FA01F140F21400C2F23C
:101B600000000068C2F200021160FEF73FFE00288C
:101B70006CD10FE000F06A81B1F5A81F40F0408100
:101B800040F480203860386840F4801064E100BF81
:101B900000285BD0FEF7F0FD054600BF38688007DF
:101BA00008D4FEF7E9FD401B0228F7D9032001B055
:101BB000BDE8F0833869616920F4FE0040EA014025
:101BC00038612078000745D4207840075CD420781D
:101BD000800600F17F80A56AA5B3B8F1180F40F028
:101BE000C98059F8C81C59F8BC0C012D2ED0E26AE6
:101BF00001F00303934229D1C1F30521226B9142E5
:101C000024D1626B01466FF35F21013A91421DD1ED
:101C1000A16BC0F3462201398A4217D1E16BC0F3B0
:101C2000064201398A4211D1216CC0F306600139A4
:101C300088420BD159F8B80CE16CC0F3CC00884253
:101C400040F0E881002001B0BDE8F083012001B040
:101C5000BDE8F083A169D9F80000002952D040F016
:101C60008060C9F80000FEF787FD0546D9F800003E
:101C70000001A9D4FEF780FD401B0228F6D90320FD
:101C800001B0BDE8F08300BF4FF62446CFF6FF76E3
:101C9000B859C00712D1B85940F00100B851FEF749
:101CA0006BFD0546B859C00708D1FEF765FD401B1E
:101CB00002284FF00300F5D938E100BFA168D9F838
:101CC0000000042946DC002900F0EA80012900F028
:101CD0001781D5E0616A3868002900F07F8040F400
:101CE00080503860FEF748FD054600BF3868800424
:101CF0003FF571AFFEF740FD401B02284FF0030097
:101D0000F4D913E120F08060C9F80000FEF734FD3B
:101D1000054600BFD9F8000000017FF555AFFEF77A
:101D20002BFD401B02284FF00300F3D9FEE000BF5B
:101D300020F480703860FEF71FFD05463868800586
:101D40007FF5A7AEFEF718FD401B02284FF00300F9
:101D5000F4D9EBE0052900F0C780852940F0908098
:101D600040F00400C9F80000D9F8000040F08000FD
:101D7000C2E000BF386820F080703860FEF7FCFCDD
:101D8000022D05460CD100BF3868800140F1D28099
:101D9000FEF7F2FC401B02284FF00300F4D9C5E027
:101DA0003868800140F12881FEF7E6FC401B0228DC
:101DB0004FF00300F4D9B9E021F001003860FEF7DC
:101DC000DBFC0546386880077FF5FBAEFEF7D4FCE8
:101DD000401B02284FF00300F4D9A7E020F4805004
:101DE0003860FEF7C9FC0546386880047FF5F3AE1D
:101DF000FEF7C2FC401B02284FF00300F4D995E027
:101E000020F480303860386820F4802038603868EA
:101E100020F4801024E000BF20F48030386038685F
:101E200020F480103860386820F480203860FEF795
:101E3000A3FC0546386880037FF548AEFEF79CFC9E
:101E4000401B64284FF00300F4D96FE040F4802079
:101E50003860386820F480103860386840F480308A
:101E60003860FEF789FC0546386880033FF52EAEE2
:101E7000FEF782FC401B64284FF00300F4D955E0C4
:101E800020F00100C9F80000D9F8000020F004009B
:101E9000C9F80000D9F8000020F0800032E000BF4F
:101EA00020F00100C9F80000D9F8000020F08000FF
:101EB000C9F80000D9F8000020F00400C9F80000BB
:101EC000FEF75AFC054641F2883600BFD9F80000FB
:101ED00080077FF57CAEFEF74FFC401BB0424FF011
:101EE0000300F3D922E000BF40F00400C9F800006D
:101EF000D9F8000020F08000C9F80000D9F80000EF
:101F000040F00100C9F80000FEF736FC054641F23A
:101F1000883600BFD9F8000080073FF558AEFEF7BD
:101F20002BFC401BB0424FF00300F3D901B0BDE8D9
:101F3000F08300BF59F8C80C43F6037104F12C0379
:101F400088430ECB084340EA0220A16B49F8C80C35
:101F50004FF47E4202EB4121E26B581E4FF4FE0328
:101F600089B203EB02426FF35F20084402F4FE01E2
:101F7000226C4FF0FE4303EB0262084402F0FE4184
:101F8000084449F8BC0C59F8C80C20F0100049F876
:101F9000C80CE06CC00049F8B80C59F8C80C40F007
:101FA000100049F8C80C59F8C80C616C20F00C00FE
:101FB000084349F8C80C59F8C80CA16C20F020005F
:101FC000084349F8C80C59F8C80C40F4803049F867
:101FD000C80C386840F080703860FEF7CDFB0446CE
:101FE000386880013FF52EAEFEF7C6FB001B0228C5
:101FF0004FF00300F4D999E759F8C80C4FF6FC717B
:10200000CFF6F871084049F8C80C002001B0BDE8CF
:10201000F08300BF59F8C80C20F0100049F8C80C34
:10202000FEF7AAFB0546FEF7A7FBA842FBD0E06C33
:10203000C00049F8B80C59F8C80C40F0100049F835
:10204000C80C002001B0BDE8F0830000042888BF60
:102050007047DFE800F0031B13352D004EF210002F
:10206000CEF20000016821F00401016040F6E44076
:10207000C4F20240016821F00C0120E04EF2100091
:10208000CEF200000168022206E000BF4EF210000E
:10209000CEF200000168012221F00401016040F647
:1020A000E440C4F20240016862F3830107E000BF2C
:1020B0004EF21000CEF20000016841F00401016010
:1020C00070470000411E0020B0EB116F1CBF0120C3
:1020D00070474EF21002CEF200025160906011681B
:1020E00041F00301116070474EF21000CEF2000083
:1020F0000068400744BF0420704740F6E440C4F243
:102100000240006800F00C01081FB0FA80F040099E
:10211000082908BF02207047FEE70000FEE7000024
:10212000FEE700007047000070B540F62C46C4F290
:10213000024656F82C1C044621F0806046F82C0C10
:10214000FEF71AFB054600BF56F82C0C000105D51A
:10215000FEF712FB401B0228F6D958E0306843F620
:102160000371884394E80E00084340EA0220E168C6
:1021700030604FF47E4202EB41212269581E4FF439
:10218000FE0389B203EB02426FF35F20084402F4BE
:10219000FE0162694FF0FE4303EB0262084402F065
:1021A000FE41084430613068A16920F00C0008430A
:1021B00030603068E16920F0200008433060606AD8
:1021C00031680843306030684FF6F87120F0100035
:1021D00030607069226A884340EAC20070613068EA
:1021E00040F01000306056F82C0C40F0806046F84B
:1021F0002C0CFEF7C1FA044656F82C0C000144BF23
:10220000002070BDFEF7B8FA001B0328F4D30320AA
:1022100070BD000070B540F63046C4F2024656F874
:10222000301C044621F0805046F8300CFEF7A4FA2A
:10223000054600BF56F8300C800005D5FEF79CFA25
:10224000401B0228F6D958E0306843F603718843F2
:1022500094E80E00084340EA0220E16830604FF441
:102260007E4202EB41212269581E4FF4FE0389B2DF
:1022700003EB02426FF35F20084402F4FE0162693F
:102280004FF0FE4303EB0262084402F0FE410844B3
:1022900070613068A16920F00C000843306030683C
:1022A000E16920F0200008433060606A316808432B
:1022B000306030684FF6F87120F010003060B0697F
:1022C000226A884340EAC200B061306840F01000E2
:1022D000306056F8300C40F0805046F8300CFEF775
:1022E0004BFA044656F8300C800044BF002070BD05
:1022F000FEF742FA001B0328F4D3032070BD000050
:1023000070470000FEF73EBA4EF6885CCEF2000C35
:10231000DCF80010012241F47001CCF8001040F606
:102320000041C4F202410A600022CA610A620B68DD
:102330004EF6E320CEF6E2201840086040F28020FE
:10234000C0F201108A62CA620A6348638A63C86382
:102350000A6448648A64086820F4802008600A657A
:102360004FF0006042F21C01C4F202014CF8800CF4
:1023700051F8040C420F062A05D800F06040B0F175
:10238000404F18BF70470868C0070BD042F63B208B
:10239000C0F6190041F8100C46F67F60C4F65D40A7
:1023A00041F8100C086840F002000860086840F02E
:1023B0000100086070470000002804BF012070473A
:1023C000016C21F000410164016C41F001010164E4
:1023D0000021416400207047002000F069BE000029
:1023E0000146806D20F4004200208A65704700009D
:1023F000014601200864086C002220F001000864F6
:10240000086C20F00040086400204A647047000017
:102410000146006C4BF6807220EA020200200A643A
:1024200070470000012909D000291CBF0120704716
:10243000016C21F00041016400207047016C41F003
:102440000041016400207047FEE7000080B54FF0B6
:10245000010C01233E2A84BF1F234FF0050C1344B7
:1024600023FA0CFCC0005FFA8CF300EB810046F20B
:1024700000414FF0FF3E3E2A88BF5EFA8CF34FEAE0
:102480008322C4F201014FF4004C88BF4CEA83223E
:10249000435812049BB208BF4FF000421A44425006
:1024A00080BD00002DE9F04140F24015C2F2000568
:1024B0006978FF291CD046F2AC1804460026C0F605
:1024C000000800270DE000BF40462BD1C168204620
:1024D000884769780137481CC0B2874206F1240654
:1024E00006D2C8B28742EFD2A868D8B13044EDE72F
:1024F00005F10C003721FDF799FF4FF0FF30C5F8CB
:102500002F00C5F82B00C5F82700C5F82300C5F833
:102510001F00C5F81B00C5F81700C5F81300BDE87B
:10252000F08100BF4EF6F050CEF200000068C00708
:1025300008BFBDE8F08100BEBDE8F0810878400624
:1025400004D0002001210822FFF780BF4878052829
:10255000F7D14888012161F3DF1046F24C01C4F243
:1025600001010860002001210822FFF76FBF000071
:1025700070B540F2406301F00F001022C2F2000378
:10258000082402EAD10203EB40104EB224EA1111F2
:1025900010440B1D0325807B46F2000C05FA03F363
:1025A00006310125C4F2010C05FA01F15CF8202086
:1025B000194448F68F7348F2800EC0F2FF7342EA66
:1025C0000E04194302F4C0622023B6F1FF3FC8BFD6
:1025D0004FF400532140B2F5806F18BF59404EF2BE
:1025E0000812CEF200024FF48063C2F88030BFF3CD
:1025F0004F8FBFF36F8F4CF82010BFF34F8FBFF397
:102600006F8F136070BD000080B54EF2081CCEF2D3
:10261000000C4FF4806ECCF880E046F2040240F2E9
:10262000FC00BFF34F8FC4F201020023C2F200008E
:102630004FF6FF71BFF36F8F1360C0F80610536041
:10264000C0F80A109360C0F80E10D360C0F81210E2
:102650001361C0F816105361C0F81A109361C0F8E6
:102660001E10BFF34F8FBFF36F8FCCF800E0C02177
:10267000018080BD2DE9F04F81B08D78C8780E467D
:102680008C8800F00301284600F084F9082819D24C
:1026900046F20008C4F2010858F8201047F2700210
:1026A000CFF600026FB21140F27807F00F0602F089
:1026B0000302022A314411D0032A75D1824648F21E
:1026C00080600EE04EF6F050CEF200000068C007C9
:1026D00000D000BE002001B0BDE8F08F824648F275
:1026E00080006FF3DF2441EA00090DF103010DF1D1
:1026F000020220464FEAD51B01F01EFD40F2FC020B
:10270000C2F200021188084483B21080B3F5006F52
:10271000504609D94EF6F051CEF200010968C907BA
:102720004FF6FF7100D000BE08EBC0028BF0010332
:1027300002EB83024FF6FF75D2F8003421F003015B
:10274000AB4340F24065C2F2000505EB4616194462
:1027500006EB0B13C2F8001420219C819873B7F18B
:10276000FF3FC8BF4FF400516FF0700281EA0901CA
:10277000002F48BF6FF4E04211404EF20812CEF233
:1027800000024FF48063C2F88030BFF34F8FBFF375
:102790006F8F48F82010BFF34F8FBFF36F8F136018
:1027A000012001B0BDE8F08F4EF6F050CEF20000EF
:1027B0000068C0078ED000BE002001B0BDE8F08FD9
:1027C00080B540F2406001F00F0C1022C2F2000010
:1027D00002EAD10300EB4C1049B21844807B46F268
:1027E000000CC4F2010C5CF82030B1F1FF3F48F658
:1027F000BF7148F2800EC0F2FF7143EA0E03C4BFFE
:102800004BF68F71C0F2FF7101EA0301C8BF4FF4AC
:10281000805251404EF20812CEF200024FF4806313
:10282000C2F88030BFF34F8FBFF36F8F4CF820108A
:10283000BFF34F8FBFF36F8F136080BDF0B581B0D2
:1028400040F2406601F00F001027C2F2000607EACE
:10285000D10706EB401649B2F019847BF2510022F1
:10286000B1F1FF3F42600381428137DD46F200064D
:10287000C4F2010656F82410858943F60F72AB4264
:1028800038BF1D4601F4C060C0F2FF72B0F5806F22
:1028900001EA020704D1204600212A46FFF7D6FDAF
:1028A000204601212A46FFF7D1FD4EF20811CEF253
:1028B00000014FF480624BF28000C1F88020784024
:1028C000BFF34F8FBFF36F8F46F82400BFF34F8FD6
:1028D000BFF36F8F0A60012001B0F0BD214600F008
:1028E000BFFD012001B0F0BDF0B581B040F24066FF
:1028F00001F00F001027C2F2000607EAD10706EB2D
:10290000401649B2F019847B0025B1F1FF3FF55123
:1029100042600381458137DD46F20006C4F20106BC
:1029200056F82410858943F60F72AB4238BF1D4616
:1029300001F4C060C0F2FF72B0F5806F01EA0207D7
:1029400004D1204600212A46FFF780FD20460121C0
:102950002A46FFF77BFD4EF20811CEF200014FF43C
:1029600080624BF28000C1F880207840BFF34F8F27
:10297000BFF36F8F46F82400BFF34F8FBFF36F8F05
:102980000A60012001B0F0BD214600F069FD012080
:1029900001B0F0BD70B540F2FC03C2F2000303EBDE
:1029A000D01600F00F02347901294FEAD01C0BD168
:1029B000012686EAD01E7CB1D87801281ED19878ED
:1029C00090421BD1002070BD34B3D878884231D1F9
:1029D00098789042F6D02DE003EB0E00007968B9AC
:1029E0009878FF2818BF904208D1DC789E1C012CF3
:1029F0004FF0000018BFFF2C00F0A48103EB0C0582
:102A0000287A28B3D879012834D19879904204BF24
:102A1000012070BD2EE000BF9878FF2818BF9042BB
:102A200008D1DD789E1CFF2D4FF0000018BF8D42AD
:102A300000F0888103EB0C05287A002844D0D8796F
:102A400088424FD19879904204BF012070BD49E07F
:102A500003EB0E00007A68B99879FF2818BF9042FE
:102A600008D1DC799E1D012C4FF0010018BFFF2C0E
:102A700000F06881287B48B1D87A012819D1987A6A
:102A8000904204BF022070BD13E000BF03EB0E00B4
:102A9000007B70B9987AFF2818BF904209D1DC7A80
:102AA00003F10A06012C4FF0020018BFFF2C00F0C2
:102AB0004981287C10B3D87B012832D1987B904281
:102AC00004BF032070BD2CE09879FF2818BF904206
:102AD00008D1DC799E1DFF2C4FF0010018BF8C42FD
:102AE00000F03081287B002844D0D87A884250D129
:102AF000987A904204BF022070BD4AE003EB0E00BA
:102B0000007C70B9987BFF2818BF904209D1DC7B0C
:102B100003F10E06012C4FF0030018BFFF2C00F04C
:102B20001181287D40B1D87C012818D1987C904231
:102B300004BF042070BD12E003EB0E00007D70B9ED
:102B4000987CFF2818BF904209D1DC7C03F1120663
:102B5000012C4FF0040018BFFF2C00F0F380287EFA
:102B600020B3D87D012834D1987D904204BF052040
:102B700070BD2EE0987AFF2818BF904209D1DC7A08
:102B800003F10A06FF2C4FF0020018BF8C4200F040
:102B9000D980287C00285FD0D87B88426AD1987B76
:102BA000904204BF032070BD64E000BF03EB0E0041
:102BB000007E70B9987DFF2818BF904209D1DC7D56
:102BC00003F11606012C4FF0050018BFFF2C00F092
:102BD000B980287F40B1D87E012818D1987E9042D4
:102BE00004BF062070BD12E003EB0E00007F70B939
:102BF000987EFF2818BF904209D1DC7E03F11A06A7
:102C0000012C4FF0060018BFFF2C00F09B8095F8B8
:102C1000200048B1D87F012840F09C80987F9042E6
:102C200004BF072070BD95E003EB0E0090F8200074
:102C3000002840F08F80987FFF2818BF904240F016
:102C40008980DD7F03F11E06012D4FF0070079D04A
:102C5000FF2D77D07EE000BF987BFF2818BF904201
:102C600008D1DC7B03F10E06FF2C4FF0030018BFE8
:102C70008C4267D0287D48B1D87C884214D1987C9A
:102C8000904204BF042070BD0EE000BF987CFF2876
:102C900018BF904208D1DC7C03F11206FF2C4FF0E4
:102CA000040018BF8C424DD0287E48B1D87D8842A0
:102CB00014D1987D904204BF052070BD0EE000BF86
:102CC000987DFF2818BF904208D1DC7D03F11606DD
:102CD000FF2C4FF0050018BF8C4233D0287F48B13D
:102CE000D87E884214D1987E904204BF062070BDE1
:102CF0000EE000BF987EFF2818BF904208D1DC7E0E
:102D000003F11A06FF2C4FF0060018BF8C4219D0B1
:102D100095F8200040B1D87F88421BD1987F90421F
:102D200004BF072070BD15E0987FFF2818BF9042B0
:102D300010D1DD7F03F11E06FF2D4FF0070018BFF5
:102D40008D4207D106EB0C0371700121327099702E
:102D500070BD00BF4EF6F050CEF200000068C00714
:102D60003FF430AE00BE002070BD00002DE9F043FE
:102D700083B00546407888460238052800F20B816A
:102D8000DFE800F0042E16220E8400BF40F240104F
:102D9000C2F2000000210173417301748173FAE0F3
:102DA00040F24010C2F20000017801310170F2E0FF
:102DB00040F24010C2F20000017B002900F02381A4
:102DC00001218173E7E000BF40F24010C2F2000031
:102DD000017B002900F0178100218173DBE000BF37
:102DE00040F24019C2F2000999F80100FF2823D0EF
:102DF00046F2AC140026C0F60004002707E000BF2E
:102E0000411C0137C9B28F4206F1240614D2C1B267
:102E10008F4205D2D9F808100029F1D0314401E0E1
:102E20002146EDD10A6A002AEAD0287869689047DD
:102E300099F80100E4E700BF99F80E0000285ED081
:102E4000002089F80E002978D9F804408DF8001088
:102E50000521B8F1000F8DF801100290019033D0D8
:102E600040F21800C2F20000028904F1080069462D
:102E7000002301F047FF0646CEB39DF800009DF801
:102E80000110424602F020FB39E000BF297911F021
:102E90000F0000F0808040F24013C2F2000303EB09
:102EA00040005F7800EBD11292F82320974251D96D
:102EB0009B68002B6FD002EBC20203EB8202D36946
:102EC000002B4ED167E000BF40F21806C2F20006A8
:102ED00071688847328904F108006946002301F0CF
:102EE00011FF7168064601208847002EC5D14EF6B5
:102EF000F050CEF200000068C00700D000BE99F884
:102F00001200C00700F07F802878D9F804408DF8BF
:102F1000000003208DF801006868B8F1000F0190EF
:102F200078D040F21800C2F20000028904F10800D3
:102F30006946002301F0E6FE0546002D00F07F8083
:102F40009DF800009DF80110424602F0BDFA03B062
:102F5000BDE8F0831FD146F2AC12C0F60002D3697F
:102F6000CBB1CB09C41814F8330F00F0FE00207069
:102F7000207800F0FB002070D76928786A79AB6868
:102F8000B84700283FD1207840F001002070207819
:102F900040F00400207040F24010C2F2000044688B
:102FA000B8F1000F14D040F21800C2F200000289FC
:102FB00004F108002946002301F0A4FE0646DEB114
:102FC00028786978424603B0BDE8F04302F07CBA45
:102FD00040F21806C2F20006716800208847328964
:102FE00004F108002946002301F08CFE71680646B2
:102FF00001208847002EE3D14EF6F050CEF20000BB
:103000000068C00702D103B0BDE8F08300BE03B082
:10301000BDE8F08340F21805C2F20005696800209F
:1030200088472A8904F108006946002301F06AFEF6
:103030006968054601208847002D7FF481AF4EF670
:10304000F050CEF200000068C007DCD000BE03B034
:10305000BDE8F08310B500F06BFA46F24004C4F20C
:10306000010400202060206840F45D40206000F0F2
:1030700087FAA06940F400410120A16110BD000061
:103080004EF28810CEF200004FF480610160BFF371
:103090004F8FBFF36F8F7047BFF34F8F4EF2081003
:1030A000BFF36F8FCEF200004FF480610160704774
:1030B0002DE9F04F89B046F24005C4F201056C6875
:1030C000A0050ED56FF400706860A8684FF44071D9
:1030D0006FF3DF20ADF81810079006A80121FFF765
:1030E00045FE60050AD4E0041CD420052FD4E00579
:1030F00042D401946868000453D563E06FF48060A3
:10310000686000F03DFA4FF48070ADF818000020C0
:103110008DF81C0006A80121FFF728FE09B0BDE8C4
:10312000F08F00BF2868012120F004002860286883
:1031300020F0080028606FF4805068604FF4A060B1
:10314000ADF8180006A8FFF711FE2005CFD52868B6
:10315000012140F008002860286840F00400286041
:103160006FF4006068604FF48060ADF8180006A846
:10317000FFF7FCFDE005BCD540F23860C2F200006C
:10318000017839B1012903D12A6822F010022A609E
:10319000013901706FF48070686001946868000400
:1031A00010D4019840040AD54EF6F050CEF200003B
:1031B0000068C00700D000BE6FF48040686009B0AE
:1031C000BDE8F08F40F60F79A5F140044FF01408E8
:1031D00005F57070C0F2FF79029012E001F18000F5
:1031E0004FF4E0618DF81C000020ADF818108DF848
:1031F0001D0006A801210892FFF7B8FD68680004C9
:10320000CFD5686800F00F0654F826A05FEA0A40A0
:1032100040F1D480CDF80C800398A0B10398013818
:103220000390039878B1039801380390039850B144
:10323000039801380390039828B10398013803904C
:1032400003980028EAD15FEA0A502FD454F82600E8
:1032500040F2406700EA090040F0800044F8260090
:1032600054F826B0029B0BF00F090BF48C4003EBD3
:10327000C601C2F20007B0F5884007EB491818BF35
:10328000012051F8202051F82010D8F80400C2F392
:10329000094713FA81F100283CD00022079204224A
:1032A00006923A4606AB01F02DFD3EE0029A00235D
:1032B00002EBC60041684068C1F3094712FA80F08A
:1032C00004A93A4601F04CFF54F82600082F00EA02
:1032D000090040F0800044F826000DD14FF4C06092
:1032E000ADF81800DDE90410CDE9071006A80121AA
:1032F000FFF73CFD62E000BF4EF6F050CEF200005A
:103300000068C00700D000BE002001210822FFF79E
:103310009DF853E0D8F80000B8F80A2000230244D2
:10332000084611463A4601F01BFFB8F80A00B8F803
:103330000C2038449742A8F80A0023D3B8F80810A4
:1033400083B299421ED90BF4C063B3F5806F08D0E5
:10335000081A80B20121904238BF02463046FFF77A
:1033600075F840F60F79C0F2FF7909F5405000EA90
:103370000B004BF2800148404FF0140844F826003F
:103380001CE000BF30460121FFF760F8B8F80A00E2
:103390004FF4E061ADF818100890002706A801214D
:1033A0008DF81C908DF81D70FFF7E0FC40F60F794A
:1033B000C8F808704FF01408C0F2FF795FEA0A609D
:1033C0007FF51CAF54F8260000EA090040F40040E5
:1033D00044F8260054F8262040F2406002F00F0125
:1033E000C2F2000000EB411002F4C063B3F5806F3D
:1033F00000F1100012D1C37B002B3FF4FFAE01237C
:1034000023EA921205EBC60303EB82020023C37387
:10341000D2F8C0336FF31943C2F8C033028943892D
:103420009A423FF4DBAE314600F01AF8E6E60000BF
:1034300040F24060C2F20000002240F8102F817B71
:103440004260826000F00CB846F24000C4F2010015
:10345000026822F4007261F34922026070470000A2
:103460002DE9F04782B0054600896A898A4646F20E
:103470000041C4F20101801AA1F5806880B2AE89D2
:1034800058F82A70B04238BF064607F4C0690020D9
:10349000B9F5806F08BFC7F380104FEACA0343EA4B
:1034A000800043584418686811FA83F14FF0000314
:1034B00040B10422019300926B46324601F004FCB5
:1034C00007E000BF2868024408461146324601F072
:1034D0009DFE6889B9F5806F3044688120686FF37C
:1034E0009F266FF3194040EA064048F2B001206081
:1034F00004BF0120E87340F63F70C0F2FF7038400F
:1035000048404EF20811CEF200014FF48062C1F83B
:103510008020BFF34F8FBFF36F8F48F82A00BFF3AF
:103520004F8FBFF36F8F0A6002B0BDE8F0870000D5
:1035300082B046F24000C4F2010003210160002184
:103540000191019AC72A06D800BF019A013201925F
:10355000019AC82AF8D3026822F0020202600091A0
:103560000099C72907D800BF00BF00990131009119
:103570000099C829F8D30021416002B070470000CB
:103580002DE9F04182B046F2000440F2FC054FF60E
:10359000FF70C4F201040027C2F20005E764C5F819
:1035A0000200C5F80600C5F80A00C5F80E00C5F807
:1035B0001200C5F81600C5F81A00C5F81E0040260E
:1035C0004EF6F05800200021CEF200082E80FFF7C2
:1035D000E1F980200021FFF7DDF940F24060C2F2FE
:1035E000000086818773868387770DF1050101AA24
:1035F000402000F0A1FD2F88384481B22880B1F529
:10360000006F06D9D8F800004FF6FF77C00700D04A
:1036100000BE0DF107010DF10602402000F08CFD07
:103620002988084482B22880B2F5006F06D9D8F8FC
:103630000000C00700D000BE4FF6FF7146F2044004
:10364000C4F2010002684FF6FF739A4327F00303A8
:103650001A440260D4F8000421F003016FF30F0054
:103660000844C4F80004206847F27001CFF6000156
:10367000084042F2202180EA0105002001210822B1
:10368000FEF7E4FE80202560E06402B0BDE8F08132
:103690009CB040F61404C4F20244FDF781F808A877
:1036A0005021FCF7C3FE0020CDE90600CDE904005F
:1036B000CDE9020054F8040C20F0300044F8040C6A
:1036C00054F8040C00F030000190019820680007C5
:1036D00009D4206800075CBF20685FEA007002D44C
:1036E00020680007F2D52220089001200B900820C6
:1036F0000C9040200D904FF480501190002408A8A9
:103700001294FEF781F918B172B600BFFEE700BF50
:103710001F20CDE9020402A80121CDE90444CDE92E
:1037200006440124FDF7AAFF10B172B6FEE700BF00
:1037300040F68C40C4F20240016840F2000841F0BB
:10374000010101600168C4F2022801F00101089141
:10375000089901684FF0000941F002010160016819
:10376000022701F0020108910899016841F0040163
:103770000160016801F0040108910899016841F0B5
:1037800008010160016801F00801089108990168C9
:1037900041F010010160006808A900F010000890D5
:1037A0000898202081E8110208A94046CDF8309001
:1037B0000B97FCF711FF404620210122FCF7D6FFB2
:1037C0004FF4204008A908F5806508AE81E8110291
:1037D00028463146CDF830900B97FCF7FDFE4FF4AC
:1037E0008040CDE90809284631460A94FCF7F4FEEA
:1037F00028464FF400510022FCF7B8FF28464FF44A
:1038000000410022FCF7B2FF40F2543046F20001C2
:10381000C2F20000C4F20101016008210171C77108
:103820004772A0F80B9080F80D90FDF795F818B14D
:1038300072B600BFFEE700BF4A2000210022FDF75C
:103840003DF84A20FDF728F8404620210022FCF7E9
:103850008DFF402000F09CFD002000F099FD00202D
:1038600000F096FD404620210122FCF77FFF4046F4
:1038700020210022FCF77AFF402000F089FD0C2077
:1038800000F086FD002000F083FD4046202101224B
:10389000FCF76CFF404620210022FCF767FF402028
:1038A00000F076FD012000F073FD0F2000F070FDA8
:1038B000404620210122FCF759FF404620210022EA
:1038C000FCF754FF402000F063FD0D2000F060FD88
:1038D0000F2000F05DFD404620210122FCF746FF4D
:1038E000404620210022FCF741FF402000F050FD1F
:1038F000122000F04DFD0F2000F04AFD404620212F
:103900000122FCF733FF40F20007C2F200074FF03C
:103910000F30C7E90000F86040F2201A4AF6012093
:10392000C2F2000AADF8080002A90020CAF80C9003
:1039300002F006FA0DF120084FF0FF30002101F0EF
:10394000C5FEFCF719FFDAF80810401A1428C0F079
:103950008B82FCF711FF0024C4F20224CAF808008D
:10396000204620210022FCF701FF402000F010FD3E
:10397000122000F00DFD0E2000F00AFD204620214F
:103980000122FCF7F3FE204620210022FCF7EEFE88
:10399000412000F0FDFC132000F0FAFC002000F0B4
:1039A000F7FC0646204620210122FCF7DFFE2046D8
:1039B0002021002206F00F05FCF7D8FE412000F080
:1039C000E7FC132000F0E4FC002000F0E1FC0646D8
:1039D000204620210122FCF7C9FE06F00F00854297
:1039E0000ED1387B85420FD19AF80C00042811D8EB
:1039F00000F101008AF80C0008BF3D700CE000BF28
:103A00008AF80C9008E000BF01203D738AF80C0092
:103A100002E000BF3D7000BF0024C4F20224204633
:103A200020210022FCF7A2FE402000F0B1FC122071
:103A300000F0AEFC0D2000F0ABFC2046202101225E
:103A4000FCF794FE204620210022FCF78FFE412047
:103A500000F09EFC132000F09BFC002000F098FC7E
:103A60000646204620210122FCF780FE2046202128
:103A7000002206F00F05FCF779FE412000F088FCDB
:103A8000132000F085FC002000F082FC0646204652
:103A900020210122FCF76AFE06F00F0085420DD1BD
:103AA000787B85420ED19AF80D00042810D800F1D9
:103AB00001008AF80D0008BF7D700BE08AF80D90B8
:103AC00008E000BF01207D738AF80D0002E000BF0E
:103AD0007D7000BF0024C4F2022420462021002271
:103AE000FCF744FE402000F053FC122000F050FC94
:103AF0000B2000F04DFC204620210122FCF736FE71
:103B0000204620210022FCF731FE412000F040FC3D
:103B1000132000F03DFC002000F03AFC0646204651
:103B200020210122FCF722FE20462021002206F05F
:103B30000F05FCF71BFE412000F02AFC132000F0CB
:103B400027FC002000F024FC06462046202101220C
:103B5000FCF70CFE06F00F0085420DD1B87B8542C4
:103B60000ED19AF80E00042810D800F101008AF84E
:103B70000E0008BFBD700BE08AF80E9008E000BF91
:103B80000120BD738AF80E0002E000BFBD7000BFC7
:103B90000024C4F20224204620210022FCF7E6FD86
:103BA000402000F0F5FB122000F0F2FB072000F0AF
:103BB000EFFB204620210122FCF7D8FD20462021E2
:103BC0000022FCF7D3FD412000F0E2FB132000F0BF
:103BD000DFFB002000F0DCFB06462046202101220E
:103BE000FCF7C4FD20462021002206F00F05FCF75B
:103BF000BDFD412000F0CCFB132000F0C9FB0020EC
:103C000000F0C6FB0646204620210122FCF7AEFD4F
:103C100006F00F0085420DD1F87B85420ED19AF84F
:103C20000F00042810D800F101008AF80F0008BF27
:103C3000FD700BE08AF80F9008E000BF0120FD73D3
:103C40008AF80F0002E000BFFD7000BF0024C4F23C
:103C50000224204620210022FCF788FD402000F0AD
:103C600097FB122000F094FB0F2000F091FB204600
:103C700020210122FCF77AFD01F082FC002800F0EF
:103C8000F180002604E000BF0136042E00F0EA8037
:103C900007EB060B9BF80400BA5DC10702F00100B8
:103CA0001CD0D8B90AEB8605287C58BB46F24720C1
:103CB000C0F6000010F8069049F20900ADF82000A7
:103CC0007F208DF82300002041468DF8229001F0DE
:103CD00029FC85F810904FF0000913E091B988B1E4
:103CE0000AEB8605287C68B148F20801ADF820107F
:103CF0008DF82200002041468DF8239001F012FC3F
:103D000085F810909BF80400BA5D810702F002006C
:103D10001AD5C8B90AEB8605687C58BB46F247201D
:103D2000C0F600003044047949F20900ADF82000E3
:103D30007F208DF82300002041468DF8224001F0BD
:103D4000F1FB6C7416E000BF002913D490B10AEBAC
:103D50008605687C70B148F20801ADF820108DF836
:103D60002200002041468DF8239001F0DBFB85F80E
:103D7000119000BF9BF80400BA5D410702F00400F7
:103D80001AD5C8B90AEB8605A87C58BB46F247206D
:103D9000C0F600003044047A49F20900ADF8200072
:103DA0007F208DF82300002041468DF8224001F04D
:103DB000B9FBAC7416E000BF002913D490B10AEB34
:103DC0008605A87C70B148F20801ADF820108DF886
:103DD0002200002041468DF8239001F0A3FB85F8D6
:103DE000129000BF9BF80400BA5D010702F00800C2
:103DF0001CD5D8B90AEB8605E87C00287FF444AFCF
:103E000046F24720C0F600003044047B49F2090026
:103E1000ADF820007F208DF82300002041468DF86A
:103E2000224001F07FFBEC742EE700BF00293FF534
:103E30002BAF00283FF428AF0AEB8605E87C00286A
:103E40003FF422AF48F20801ADF820108DF82200AF
:103E5000002041468DF8239001F064FB85F8139013
:103E600012E700BF3868786001F08AFB50B100BFEC
:103E70000020002101F02AFB20B10020414601F082
:103E80003FFBF5E7FCF778FCDAF80410BA68401A53
:103E90009042FFF451AD50189AF80010CAF804008F
:103EA00081F001008AF8000046E50000002070471C
:103EB0000120704770B584B040F2C414C2F200040F
:103EC0002046C021FCF7B2FA04F14000402500264C
:103ED0008DE8610004F128000021002200230395F1
:103EE00000F0BAFB04F1800104F110008DE86200DB
:103EF000002101220023039500F0AEFB04B070BD49
:103F00002DE9F04F81B04B798E18012B0F4615D15A
:103F10008B790F46012B11D1CB790F4673B90B78F2
:103F2000934201EB030709D23A783A44B24205D8EA
:103F30007B78242B02D1B2421746F5D37A78042A33
:103F400007D17A79012A04D1BA79032A01D1FA7901
:103F500022B1002080B201B0BDE8F08F40F2C41859
:103F6000C2F2000898F82A2098F81230002A18BFE8
:103F70000122002B18BF01231A40012A0CD14EF652
:103F8000F050CEF200000068C007E2D000BE002072
:103F900080B201B0BDE8F08FBB7888F8000088F8E7
:103FA00001303A793B78002A07EB030450D0B44241
:103FB0004ED24FF0000919E0A18888F812006FF383
:103FC000DF2108F11C0088F810B0A8F8141000F0E8
:103FD000A3FC20783A79235C044409F10109514695
:103FE000584691451C4438BFB44231D22378E51875
:103FF000B5422DD86578052DF3D18A4621468346F2
:1040000001F0E4FF50B394F90200B0F1FF3FD3DDBB
:10401000454605F828BFA188A8706FF3DF2105F198
:104020000C00A98000F078FC284600F045FB002831
:10403000CFD14EF6F050CEF200000068C0073FF43A
:1040400088AF00BE002080B201B0BDE8F08F00BF95
:10405000601A80B201B0BDE8F08F00BF4EF6F0509C
:10406000CEF200000068C0073FF473AF00BE00202E
:1040700080B201B0BDE8F08FB0B540F2C414C2F216
:104080000004002504F13400C4E90055C4E90255D8
:1040900000F042FC04F11C0084F82A5000F03CFCC3
:1040A000A574B0BDF0B581B040F2C417C2F20007EC
:1040B00097F82A00BC7C451A18BF0125661A18BF5C
:1040C00001262E40012E0BD14EF6F050CEF200000C
:1040D0000068C00700D000BE002001B0F0BD00BFE6
:1040E000884213D152B9396B29B19AB207F1340021
:1040F000002300F007FE002001F038FA07F1280045
:1041000000F0DAFA012001B0F0BD00BF002A4FF044
:10411000000008BF8C4201D001B0F0BD07F11005CE
:1041200028461C4600F058FB0028EBD128462146C3
:1041300000F0B2FBE6E7000080B54FF0000C012371
:104140004FF0010E3E2888BF4FF0010C84BF4FF0A6
:104150001F0E0523704420FA03FE5FFA8EF098408C
:1041600081F800C082F800E080BD0000B0B54A8848
:104170000C464FF0FF3101EB12210E291BD80546EA
:10418000DFE801F00822141919323E19191919191A
:1041900019191C0001F01AF900283FD002462846E0
:1041A00021461223BDE8B04001F09CB8A188D0B2EE
:1041B00001F016F9E0B90020B0BD00BF01F0FEF833
:1041C0000028F8D0024621E0D0B201F0F9F802460A
:1041D000E0B94EF6F050CEF200000068C007EAD019
:1041E00000BE0020B0BD00BF01F0F6F80028E2D00C
:1041F0000378024628462146BDE8B04001F072B877
:10420000D0B201F0EBF802460028D4D053882846FB
:104210002146BDE8B04001F065B800BF4EF6F05051
:10422000CEF200000068C007C5D0002000BEB0BDBF
:104230002DE9F04F83B08346481EC0B201F0C0F8AC
:10424000E0B14178022919D140F2401AC179C2F295
:10425000000A9AF80F20C1F3801102F0FE02114407
:104260008AF80F1041880A2970D346F2AC1900EB86
:10427000010800F10905C0F6000912E04EF6F05001
:10428000CEF200000068C00700D000BE002003B0DE
:10429000BDE8F08F0B29054666D145454FF001007A
:1042A000F5D228782844404550D869780429F1D1BE
:1042B0009AF80100FF2825D0A8EB05018EB2002452
:1042C000002700BFC0B2874206D2DAF808000028F3
:1042D00040D0204402E000BF48463BD10369584625
:1042E000294632469847092828BF86420ED29AF8B6
:1042F00001000137411CC9B28F4204F12404E1D30B
:1043000015E000BF0027FF2011E000BFFBB20AF15B
:1043100023010AF113020646184610233446CDE95C
:10432000005600F03DF948B39AF8010025440130E9
:10433000C0B2F9B28142B0D34EF6F050CEF20000D6
:104340000068C007A2D000BEA0E700BF012003B0F4
:10435000BDE8F08F4EF6F050CEF200000068C007C6
:104360003FF494AF00BE91E74EF6F050CEF200005D
:104370000068C0073FF48AAF00BE87E74EF6F050F2
:10438000CEF200000068C0073FF480AF00BE7DE7BA
:104390002DE9F04F81B040F20044C4F202240546FA
:1043A00020464FF4004100220026FCF7DFF92046AA
:1043B0004FF400510122FCF7D9F920464FF4804117
:1043C000FCF7CEF9009020464FF400510022FCF794
:1043D000CDF93F2D88BF012620464FF400413246DB
:1043E000FCF7C4F920464FF400510122FCF7BEF956
:1043F00020464FF48041FCF7B3F9814620464FF444
:1044000000510022FCF7B2F9C5F3401220464FF4E8
:104410000041FCF7ABF920464FF400510122FCF7B4
:10442000A5F920464FF48041FCF79AF982462046D0
:104430004FF400510022FCF799F9C5F30012204611
:104440004FF40041FCF792F920464FF4005101224D
:10445000FCF78CF920464FF48041FCF781F9834644
:1044600020464FF400510022FCF780F9C5F3C0024A
:1044700020464FF40041FCF779F920464FF40051F3
:104480000122FCF773F920464FF48041FCF768F9EC
:10449000064620464FF400510022FCF767F9C5F3A9
:1044A000800220464FF40041FCF760F920464FF4AB
:1044B00000510122FCF75AF920464FF48041FCF7E5
:1044C0004FF9074620464FF400510022FCF74EF901
:1044D000C5F3400220464FF40041FCF747F920465F
:1044E0004FF400510122FCF741F920464FF480417E
:1044F000FCF736F9804620464FF400510022FCF7C5
:1045000035F905F0010220464FF40041FCF72EF981
:10451000009D721EA9F10106B6FA86F6013D7609E4
:10452000B5FA85F5791EAAF10107B6016D09B7FA4A
:1045300087F746EAC516ABF101037F09B3FA83F3A7
:1045400046EA47175B09B2FA82F247EA03135209B7
:10455000B1FA81F143EAC202A8F101004909B0FAB7
:1045600080F042EA8101400941EA400520464FF4CB
:1045700000510122FCF7FAF820464FF48041FCF785
:10458000EFF80138B0FA80F04009054320464FF4B7
:1045900000510022FCF7EAF8E8B201B0BDE8F08F64
:1045A000B0B5059C44B3DDF810C00CEB040E05E07B
:1045B00020709CF80040A444F4451DD29CF80040B3
:1045C0006444744518D89CF80140042C0AD0052C8A
:1045D000EFD19CF8024004F00F0501EB450505EB17
:1045E000D414E5E79CF80340002CE2D19CF802408B
:1045F0009C4203D21444DBE70120B0BD4EF6F050DC
:10460000CEF200000068C00704BF0020B0BD00204B
:1046100000BEB0BD0178C9070ED1017849070BD49F
:104620000178C90708D10178490705D4017841F01C
:10463000040101700120704700207047017849078C
:1046400008D50178C90705D1017801F0FB01017097
:104650000120704700207047F0B581B08C46DDE93D
:10466000061200298E46144618BF4FF0010E002A8C
:1046700018BF012404EA0E04012C0BD180F801C0FC
:1046800000F10C0CDDE908650746604600F048F9CA
:10469000BE60FD80204601B0F0BD0000B0B592B212
:1046A00004460C30002300F00FFB0546204600F0C6
:1046B00003F82846B0BD0000818AC28AB0F91030E4
:1046C000891A48BF01EB43018288D3FA51F189B2BC
:1046D000914203D3817809B142780AB10020704732
:1046E00010B582B00446007801F042FC002841D0A9
:1046F000A08AE18AB4F91020401A48BF00EB4200BA
:10470000A188D2FA50F0234682B28A4206D2587863
:1047100080BB1878997801F06DFC2BE04942084085
:1047200080B2DC885978A04238BF0446D1B99A6873
:104730001878997852B14FF0000C2346002C08BF2E
:104740002246CDF800C001F083FC08E003F10C0222
:104750004FF0000C2346CDF800C001F0BFFC01462D
:10476000204641B94EF6F050CEF200000068C00776
:1047700000D000BE002002B010BD0000002A04BF1F
:1047800000207047B0B592B204460C30002300F010
:10479000B9FA218AA28AE38AD21A48BF02EB4102FF
:1047A00093B2A2888B4228BF0B46934202D2914219
:1047B00028BFB0BD0546204600F00EF82846B0BD23
:1047C000818AC28AB0F91000891A48BF01EB400102
:1047D000D0FA51F080B27047018A828AC38AD21A15
:1047E00048BF02EB410292B28A4238BF114619B16A
:1047F000817809B142780AB100207047B0B582B023
:104800000546007801F0B4FB002841D0A9682B468A
:1048100005F10C04B1B1DA882046002300F054FA07
:104820002B465978E0B159BB9A68054618789978B3
:104830004FF0000CD2B12B462C46CDF800C001F051
:1048400007FC1AE0188A998ADA8A891A48BF01EBAC
:10485000400189B2814238BF084659780028E2D128
:10486000B1B91878997801F0C5FB11E022462B46C2
:104870002C46CDF800C001F031FC0146284641B974
:104880004EF6F050CEF200000068C00700D000BE27
:10489000002002B0B0BD000010B582B0838AC48A87
:1048A00002464FF0000031B1A34204D19088013894
:1048B000084203D0002002B010BD00BF917800294B
:1048C000F8D050780028F5D11078144601F050FB4C
:1048D0000028EFD06078B0B9A3682078A17822468C
:1048E00033B1002400220023009401F0B1FB05E065
:1048F0000C3200240023009401F0F0FB00281EBFBE
:10490000012002B010BD4EF6F050CEF2000000685B
:10491000C007CFD000BECDE70021418101817047A3
:10492000B2F5004F05D8016000218280837141817A
:1049300001810020B2F5004F98BF012070470000B0
:104940002DE9F04F83B00C9E87889D1B48BF05EB77
:10495000470590462A043FD0AAB2974206D23A466B
:104960009F4298BF5242D6183D4646810D9A00BFDD
:10497000B3B2BB420ED3F61BB3B2BB420AD3F61B93
:10498000B3B2BB4206D3F31B9EB2BE42A3EB0706F3
:10499000EED21E46ABB2A7EB060B434538BF984696
:1049A00002B3D0F800A01FFA8BF01AFA86F98045FE
:1049B00032D91478CDF80080604200EA0B001FFA6B
:1049C00080FCA44564D24B460D4662460004A4F127
:1049D000010840F0B080BAE04FF00008404603B054
:1049E000BDE8F08F03681FFA8BF213FA86F3904547
:1049F00044D9054608460E461946A8EB0B04FBF7BA
:104A0000D0FC16FA8BF02968A2B2FBF7CAFC40462C
:104A100003B0BDE8F08F00BF12784046904503D246
:104A20004246000472D1D9E7D9F80030801A0F4607
:104A300085B247F8043B954209EB020350D3801A34
:104A400087B259F8025097424D6051D3801A87B20D
:104A500059F81250974202EB42078D6050D359F833
:104A60000770801A1344CF6087B2134403EB020926
:104A7000974201F11001D7D244E000BF0846194621
:104A80004246FBF78EFC404603B0BDE8F08F00BF06
:104A90000D464B461A68001B2F4686B247F8042B7A
:104AA000A64203EB04021FD3001B87B21E59A74284
:104AB0006E6021D3001B87B253F81460A74204EB49
:104AC0004407AE6030D3001B2244DB5987B2224436
:104AD000EB601319A74205F11005DBD226E000BFF9
:104AE000994639460EE000BF13463D461EE000BF22
:104AF00009EB4209083105E003EB4403083515E0F2
:104B00000C31B94482B200043FF468AF0020029037
:104B100002A80C464946FBF744FC02982060404638
:104B200003B0BDE8F08F00BF0C353B4482B20004F7
:104B3000A4F101080BD00020029002A80F461946EC
:104B40006646FBF72EFC0298B4463946286000986A
:104B500008EA0B05A0EB0B075FFA85FBBBF1000F22
:104B60000CEB01085ED0A4EB0B0009EB0C010DF17E
:104B7000040986B248465A46FBF713FCB8B2B04265
:104B800038BF0646F6B22EB109EB0B00514632464D
:104B9000FBF707FC56FA85F2B14601A94646A24248
:104BA00034D300BF0868121B334695B243F8040B98
:104BB000A54201EB04001BD3121B93B20D59A34273
:104BC000756019D3121B93B251F81450A342B5600B
:104BD00016D304EB4403121B2044C95893B220445B
:104BE000F1600119A34206F11006DBD20CE000BF10
:104BF00001461E4608E000BF01EB4401083603E011
:104C000004EB44000C36014492B232B10020029011
:104C100002A8FBF7C6FB0298306008F10408A7EB76
:104C20000907CA44380449D0BAB2A2423DD300BFF2
:104C3000DAF800003F1B4146BAB241F8040BA24229
:104C40000AEB040020D33F1BB9B25AF80420A1425A
:104C5000C8F804201CD33F1BB9B25AF81420A14253
:104C6000C8F808201AD304EB44013F1B5AF801107E
:104C70002044C8F80C10B9B2204400EB040AA14249
:104C800008F11008D4D20EE0824688460BE000BF3F
:104C90000AEB440A08F1080805E000BF04EB4400F1
:104CA00008F10C088244BAB242B10020029002A876
:104CB0005146FBF776FB0298C8F80000DDF800804B
:104CC000404603B0BDE8F08F10B582B09C46038922
:104CD000B0F80AE00446CDE900ECFFF731FEA18808
:104CE000B4F80AC00CEB00039AB2A3EB410EB2EB8E
:104CF000410F28BF7346624538BF7346638102B0D7
:104D000010BD00002DE9F04F87B0002A60D0154695
:104D100006894289877980468088AFB1A8424FD9F9
:104D2000B71A48BF07EB400715FA87F7B7EB400FF4
:104D300015D3471BBE18B7B2974224BF4200BA42F0
:104D400098BFA6EB40060AE0B21A48BF02EB400249
:104D5000D0FA52F292B2954228BF1546C5B33246F8
:104D600097B287420ED3121A97B287420AD3121A09
:104D700097B2874206D3171ABAB28242A7EB000253
:104D8000EED23A46A0EB020A97B21FFA8AF22BB390
:104D9000D8F80000954200EB070931D9CDE9036549
:104DA0001D7868420AEA0004A2B2AA4202922FD2F7
:104DB00048460E462704A5F1010740F09A80A2E07C
:104DC0002F1A16460546002B08BF3944002DC6D1C0
:104DD0000025284607B0BDE8F08F00BFD8F80000D6
:104DE0009542384412D9A5EB0A0437460E46FBF724
:104DF000D8FAD8F8000016FA8AF1A2B23E4699E134
:104E00001A78954232D22A46D7E000BF2A4691E16D
:104E10000E464846374657F804CB641BA2B2C0F88A
:104E200000C0AA4200EB05024CD3641BA7B2D6F81F
:104E300004C0AF4240F805C04CD3641BA7B2D6F8FB
:104E400008C0AF4205EB450740F815C04AD302EB56
:104E5000050CF268641BC251A2B2AC440CEB050015
:104E6000AA4206F11006D5D23EE000BF34462846DD
:104E70000F4657F8043B801A86B2C9F800309642B4
:104E800009EB020322D3801A87B24E68974249F891
:104E9000026023D3801A87B28E68974202EB4207E2
:104EA00049F81260C0F08280CE68801A134449F835
:104EB000076087B2134403EB0209974201F1100126
:104EC000D6D275E010463E460EE000BF9946394600
:104ED0006EE000BF00EB4500083605E009EB420933
:104EE000083165E00C363844A2B22704A5F1010769
:104EF00009D0366806AC06960E4621461C46FBF7DE
:104F000050FA314623460498A0EB0A0B07EA0A0040
:104F1000029FC2B207EB010AB2B1A91A019289B28B
:104F20001FFA8BF28A4238BF11465FFA81FE5EFAA1
:104F300080F21D7809EB0700AA42029000930DD27F
:104F4000764605A857464AE0D8F80000049D039E1F
:104F50005FEA0B4140F0A480EEE000BF05A8574691
:104F6000394651F804CB521B96B2C0F800C0AE428D
:104F700000EB050626D3521B91B27C68A94244512E
:104F800024D3521B91B2BC68A94205EB450140F8FD
:104F900015401FD3FC68521B2E44445091B22E443E
:104FA0007019A94207F11007DAD215E00C31B944A3
:104FB00082B22646002A00F0BF80086806A9069043
:104FC0004846B7E030460F4606E000BF00EB45001C
:104FD000083701E00C37084492B2764622B13968AE
:104FE000069106A9FBF7DDF9019C0DF11409029861
:104FF000494622460AF1040AFBF7D3F9049D002E24
:1050000044D0042E06F0030002D2002124E000BFA9
:1050100006F0FC0104EB09024942531C6FF0030245
:105020009F18D8F80040FD7814442571D8F8005036
:105030003C7915446C71D8F800507C791544AC71FA
:10504000D8F80050BF79154404328C180434EF713D
:10505000E6D1049D019C111DC0B10A1919F8022066
:10506000D8F8003001285A5410D04A1C131919F8E6
:105070000330D8F800700228BB54019A06D0881C6F
:10508000811819F80110D8F800201154D8F8000040
:10509000009BABEB060B3044039E5FEA0B414BD009
:1050A00019781FFA8BF28A4240D300BF534653F857
:1050B000042BABEB010B1FFA8BF702608F4200EB66
:1050C000010223D3ABEB010B1FFA8BF3DAF8047068
:1050D0008B4247501ED3ABEB010B1FFA8BF3DAF870
:1050E00008708B4201EB410340F8117018D3DAF8D5
:1050F0000C70ABEB010B0A44C7501FFA8BF30A4448
:1051000050188B420AF1100AD0D20CE010469A4691
:1051100009E000BF00EB41000AF1080A03E000BF0C
:105120000AF10C0A18441FFA8BF22AB1DAF80010BF
:10513000069106A9FBF735F97119B8F804008AB28F
:10514000A1EB4003B2EB400F28BF1946B0B2824238
:1051500038BF1946A8F80810284607B0BDE8F08FF8
:1051600010B582B0002B14BF93F800E04FF0040E8E
:10517000724503D21346120438D13FE0034653F878
:1051800004CBA2EB0E0294B2C1F800C0744501EB4F
:105190000E0C1FD3A2EB0E0293B24468734541F884
:1051A0000E401DD3A2EB0E0293B2846873450EEB42
:1051B0004E0341F81E4023D3C468A2EB0E02F44410
:1051C000CC5093B2F4440CEB0E01734500F1100087
:1051D000D4D208E06146184693B2120406D10DE01D
:1051E00001EB4E01083093B2120407D0006801AA07
:1051F0000190084611461A46FBF7D3F802B010BDDD
:105200000C30194493B21204F0D1F7E7F0B581B035
:10521000002B074614BF18780420824204D213469C
:10522000100433D13AE000BF0B68121A3C4695B225
:1052300044F8043B854201EB00031BD3121A95B2DC
:105240000C5885427C601BD3121A95B251F810603D
:1052500000EB40048542BE6022D3121A0344095970
:1052600096B20344F9601918864207F11007DBD2A1
:1052700009E000BF1946274693B2100406D10DE09D
:1052800001EB4001083793B2100407D000200090D2
:1052900068461A46FBF785F80098386001B0F0BD03
:1052A0000C37214493B21004F0D1F7E780B582B0F7
:1052B000D1F800C04B6840F2A802C2F200024FF0E1
:1052C000000EC2E900C3C2E902EE0978802222EA98
:1052D000010100220023CDF800E000F0B9FE02B089
:1052E00080BD0000F0B581B00D684F6840F2A8069F
:1052F000C2F20006C6E90057CC884FF0000CA3426A
:105300002746B260A6F80EC038BF1F46B7816CB101
:1053100012BB0BB34EF6F050CEF200000068C0078F
:1053200000D000BE002001B0F0BD00BF097880228F
:1053300022EA010100220023CDF800C000F088FE1F
:1053400060BB4EF6F050CEF200000068C007E9D016
:1053500000BE002001B0F0BD6DB2402F28BF402735
:1053600005F080017BB1B5F1FF3F0CDCD2B106F155
:1053700014010546084611463A461C46FBF711F84B
:10538000234628468021002B18BF06F1140300266F
:105390001A463B46009600F05BFE18B1012001B0B2
:1053A000F0BD00BF4EF6F050CEF200000068C0071E
:1053B000B8D000BE002001B0F0BD00000020704752
:1053C00046F2E210C0F600007047000046F2D0102E
:1053D000C0F60000704700000020704700207047B2
:1053E00010B3042884BF00207047F0B581B040F2AC
:1053F0003401C2F2000151F820402046FAF7B2FF12
:1054000010F0E00F18BF1F2001064ED0C1B240F2CD
:10541000841C042900F0030EC2F2000C18D20023F1
:10542000BEF1000F2FD140E040F23400C2F2000084
:10543000006840F284110088C2F2000148804FF4F5
:10544000417140F28410C2F200000180704700BF39
:1054500001F0FC014B42ACF10801651C6FF0030246
:10546000AE18F77804324F8137798F817779CF8101
:10547000B6790E829E18043601F10801F0D1131D91
:10548000BEF1000F11D0E25C591CBEF1010F2CF8E7
:1054900011200AD0625C991CBEF1020F2CF8112079
:1054A00003D0615C0CEB4302D180C0B2022101EB5E
:1054B000400040F4407101B0BDE8F04040F284107B
:1054C000C2F20000018070477047000000EB40000E
:1054D00040F2C411C2F2000101EB8010018F828FF3
:1054E000C38FD21A48BF02EB4102037B407B92B2CA
:1054F000C01A8A4238BF114651FA80F07047000046
:1055000080B500EB400040F2C412C2F2000202EB90
:10551000801004222830FFF7C1F80438B0FA80F078
:10552000400980BD00EB400040F2C412C2F200020C
:1055300002EB8010827C002A04BF00207047B0B5C7
:1055400000F1100420460D46FFF73AF904280BD36A
:10555000204629460422FFF711F928B12046FFF71B
:105560003BF90120B0BD00BF0020B0BD7047000076
:1055700040F20000C2F200004FF47A71816070477F
:1055800040F24010C2F20000007C002818BF012049
:105590007047000080B5FFF7F3FF002840F20000DD
:1055A0004FF0FA01C2F2000018BF4FF47A71816027
:1055B00080BD00002DE9F04740F21806C2F2000657
:1055C0003278FF2A02D00120BDE8F087002941D0BF
:1055D00040F24017C2F200078246884607F10C00ED
:1055E0003721FAF723FF0020387006F10C00FFF78F
:1055F00093F9301D7860781C00F0E8FB7978B8608A
:10560000FF293FD046F2AC190025C0F6000900245E
:10561000C8B2844204D2B86840B3284402E000BF54
:10562000484623D1406808B3804779780134481C44
:10563000C0B2844205F12405EAD35046414686F8BB
:1056400000A0FDF707FD48B35046FDF725FD0120FA
:10565000BDE8F0874EF6F050CEF200000068C007BB
:1056600023D0002000BEBDE8F08700BF4EF6F0500A
:10567000CEF200000068C00717D0002000BEBDE8D1
:10568000F08700BF4EF6F050CEF200000068C00771
:105690000BD0002000BEBDE8F08700BF4EF6F050F2
:1056A000CEF200000068C00702D10020BDE8F087FC
:1056B000002000BEBDE8F0877047000040F2000007
:1056C000C2F2000040F6C411816070472DE9F04F2E
:1056D00087B040F21805C2F200052878FF2800F0D4
:1056E0001E8303AE40F2401A301DC2F2000A46F299
:1056F000AC1B01900AF10C004FF0FF39C0F6000B13
:105700004FF0000802900DE09DF80C009DF811206C
:10571000059B00F07FFB00BF08F10108B8F1100FF6
:1057200000F0FD826968DAF80440002088472A8981
:1057300004F1080031460023FFF7C6FA69680746FE
:1057400001208847002F00F0EA829DF80D00013803
:10575000072800F2DF80DFE800F0054D31392971BC
:10576000B54500BF9AF80100FF2800F0DD809DF8E4
:105770000C70002600240FE0584640F00B81C168F1
:10578000384688479AF801000134411CC9B28C425E
:1057900006F1240680F0C880C0B28442ECD2DAF868
:1057A0000800002800F0F6803044E8E79AF80C0082
:1057B0000028B1D0FFF7EEFEAEE700BF9AF8120066
:1057C000C007A9D00498FFF777FFA5E79AF80C0067
:1057D0000028A1D09AF80F00C0F34000FFF76EFF39
:1057E0009AE700BF049900293FF496AF05988847CF
:1057F00092E700BF9AF80100FF2800F0B1809DF801
:105800000C70002600240FE0584640F0CD80C1689F
:10581000384688479AF801000134411CC9B28C42CD
:1058200006F1240680F09C80C0B28442ECD2DAF803
:105830000800002800F0B8803044E8E79AF800003B
:10584000002800F059829AF8000001388AF8000018
:105850009AF8000000287FF45FAF01208AF80C005E
:105860009AF8330000F0FE008AF833009AF833000B
:1058700000F0FB008AF833009AF8340000F0FE00D4
:105880008AF834009AF8340000F0FB008AF83400FB
:105890009DF80C70002000F0ABFA9DF81020C2F3C8
:1058A0004110022800F09680032840F0A3804EF6B5
:1058B000F050CEF200000068C00700F0128200BE77
:1058C0000FE200BF9DF8101011F00F000AEB40002E
:1058D00000EBD11292F8333003F0FE0382F833303C
:1058E00092F8333003F0FB0382F833303FF40CAF0F
:1058F000CA09104490F823009AF8012082425DD929
:10590000DAF80820002A00F0038200EBC00002EB66
:10591000800056E04EF6F050CEF200000068C0075E
:105920003FF4FAAE00BEF7E602983721FAF77EFDA3
:10593000CAF82F90CAF82B90CAF82790CAF823907B
:10594000CAF81F90CAF81B90CAF81790CAF81390AB
:1059500000F042FA9DF8100003AE8AF81100DBE671
:1059600002983721FAF762FDCAF82F90CAF82B90F7
:10597000CAF82790CAF82390CAF81F90CAF81B905B
:10598000CAF81790CAF8139000F026FA00F0CEF982
:1059900003AEC1E64EF6F050CEF200000068C0073C
:1059A000D6D000BED4E700BF4EF6F050CEF20000D5
:1059B0000068C007E8D000BEE6E700BF584640F0E8
:1059C000A78187699DF80C009DF81120059BB847B9
:1059D000A2E600BF45F63D50C0F6000000F008FA10
:1059E000019A3846012100F0A9F900287FF494AE0D
:1059F00077E100BF02F01F01022937D001291DD035
:105A0000002959D101286BD1BDF8140010F0F00F16
:105A100040F0678100F00F005044C07C9AF80110FC
:105A2000814240F2A380DAF80810002900F0598181
:105A300000EBC00001EB80049BE000BFBDF8140048
:105A400010F0F00F40F04D8100F00F005044C07C8A
:105A50009AF80110814253D9DAF80810002900F0B1
:105A6000408100EBC00001EB80044CE0BDF8141055
:105A700001F00F00082829D20AEB4003C9B203EB5A
:105A8000D1139AF8016093F82330DAF808C003EBD9
:105A9000C3049E424FF0000308BF5B4688BF0CEB77
:105AA000840312F0600F4DD0002B03AE00F019817B
:105AB00058691C465EE000BF4EF6F050CEF2000082
:105AC0000068C00700F00D8100BE0AE14EF6F050FC
:105AD000CEF200000068C00700F0038100BE00E1C4
